{
  "_format": "hh-sol-artifact-1",
  "contractName": "AttendanceToken",
  "sourceName": "contracts/AttendanceToken.sol",
  "abi": [
    {
      "inputs": [],
      "stateMutability": "nonpayable",
      "type": "constructor"
    },
    {
      "anonymous": false,
      "inputs": [
        {
          "indexed": true,
          "internalType": "address",
          "name": "owner",
          "type": "address"
        },
        {
          "indexed": true,
          "internalType": "address",
          "name": "spender",
          "type": "address"
        },
        {
          "indexed": false,
          "internalType": "uint256",
          "name": "value",
          "type": "uint256"
        }
      ],
      "name": "Approval",
      "type": "event"
    },
    {
      "anonymous": false,
      "inputs": [
        {
          "indexed": true,
          "internalType": "address",
          "name": "to",
          "type": "address"
        },
        {
          "indexed": false,
          "internalType": "uint256",
          "name": "amount",
          "type": "uint256"
        },
        {
          "indexed": false,
          "internalType": "uint256",
          "name": "time",
          "type": "uint256"
        },
        {
          "indexed": false,
          "internalType": "uint256",
          "name": "classSessionID",
          "type": "uint256"
        },
        {
          "indexed": false,
          "internalType": "uint256",
          "name": "organizationID",
          "type": "uint256"
        }
      ],
      "name": "TokensMinted",
      "type": "event"
    },
    {
      "anonymous": false,
      "inputs": [
        {
          "indexed": true,
          "internalType": "address",
          "name": "from",
          "type": "address"
        },
        {
          "indexed": true,
          "internalType": "address",
          "name": "to",
          "type": "address"
        },
        {
          "indexed": false,
          "internalType": "uint256",
          "name": "value",
          "type": "uint256"
        }
      ],
      "name": "Transfer",
      "type": "event"
    },
    {
      "inputs": [
        {
          "internalType": "address",
          "name": "owner",
          "type": "address"
        },
        {
          "internalType": "address",
          "name": "spender",
          "type": "address"
        }
      ],
      "name": "allowance",
      "outputs": [
        {
          "internalType": "uint256",
          "name": "",
          "type": "uint256"
        }
      ],
      "stateMutability": "view",
      "type": "function"
    },
    {
      "inputs": [
        {
          "internalType": "address",
          "name": "spender",
          "type": "address"
        },
        {
          "internalType": "uint256",
          "name": "amount",
          "type": "uint256"
        }
      ],
      "name": "approve",
      "outputs": [
        {
          "internalType": "bool",
          "name": "",
          "type": "bool"
        }
      ],
      "stateMutability": "nonpayable",
      "type": "function"
    },
    {
      "inputs": [
        {
          "internalType": "address",
          "name": "account",
          "type": "address"
        }
      ],
      "name": "balanceOf",
      "outputs": [
        {
          "internalType": "uint256",
          "name": "",
          "type": "uint256"
        }
      ],
      "stateMutability": "view",
      "type": "function"
    },
    {
      "inputs": [],
      "name": "decimals",
      "outputs": [
        {
          "internalType": "uint8",
          "name": "",
          "type": "uint8"
        }
      ],
      "stateMutability": "view",
      "type": "function"
    },
    {
      "inputs": [
        {
          "internalType": "address",
          "name": "spender",
          "type": "address"
        },
        {
          "internalType": "uint256",
          "name": "subtractedValue",
          "type": "uint256"
        }
      ],
      "name": "decreaseAllowance",
      "outputs": [
        {
          "internalType": "bool",
          "name": "",
          "type": "bool"
        }
      ],
      "stateMutability": "nonpayable",
      "type": "function"
    },
    {
      "inputs": [
        {
          "internalType": "address",
          "name": "spender",
          "type": "address"
        },
        {
          "internalType": "uint256",
          "name": "addedValue",
          "type": "uint256"
        }
      ],
      "name": "increaseAllowance",
      "outputs": [
        {
          "internalType": "bool",
          "name": "",
          "type": "bool"
        }
      ],
      "stateMutability": "nonpayable",
      "type": "function"
    },
    {
      "inputs": [
        {
          "internalType": "address",
          "name": "_to",
          "type": "address"
        },
        {
          "internalType": "uint256",
          "name": "_amount",
          "type": "uint256"
        },
        {
          "internalType": "uint256",
          "name": "_classSessionID",
          "type": "uint256"
        },
        {
          "internalType": "uint256",
          "name": "_organizationID",
          "type": "uint256"
        }
      ],
      "name": "mint",
      "outputs": [
        {
          "internalType": "bool",
          "name": "",
          "type": "bool"
        }
      ],
      "stateMutability": "nonpayable",
      "type": "function"
    },
    {
      "inputs": [],
      "name": "name",
      "outputs": [
        {
          "internalType": "string",
          "name": "",
          "type": "string"
        }
      ],
      "stateMutability": "view",
      "type": "function"
    },
    {
      "inputs": [],
      "name": "owner",
      "outputs": [
        {
          "internalType": "address",
          "name": "",
          "type": "address"
        }
      ],
      "stateMutability": "view",
      "type": "function"
    },
    {
      "inputs": [],
      "name": "symbol",
      "outputs": [
        {
          "internalType": "string",
          "name": "",
          "type": "string"
        }
      ],
      "stateMutability": "view",
      "type": "function"
    },
    {
      "inputs": [],
      "name": "totalSupply",
      "outputs": [
        {
          "internalType": "uint256",
          "name": "",
          "type": "uint256"
        }
      ],
      "stateMutability": "view",
      "type": "function"
    },
    {
      "inputs": [
        {
          "internalType": "address",
          "name": "",
          "type": "address"
        },
        {
          "internalType": "uint256",
          "name": "",
          "type": "uint256"
        }
      ],
      "name": "transfer",
      "outputs": [
        {
          "internalType": "bool",
          "name": "",
          "type": "bool"
        }
      ],
      "stateMutability": "pure",
      "type": "function"
    },
    {
      "inputs": [
        {
          "internalType": "address",
          "name": "from",
          "type": "address"
        },
        {
          "internalType": "address",
          "name": "to",
          "type": "address"
        },
        {
          "internalType": "uint256",
          "name": "amount",
          "type": "uint256"
        }
      ],
      "name": "transferFrom",
      "outputs": [
        {
          "internalType": "bool",
          "name": "",
          "type": "bool"
        }
      ],
      "stateMutability": "nonpayable",
      "type": "function"
    }
  ],
  "bytecode": "0x60806040523480156200001157600080fd5b506040518060400160405280601081526020016f20ba3a32b73230b731b2902a37b5b2b760811b81525060405180604001604052806002815260200161105560f21b815250816003908162000067919062000136565b50600462000076828262000136565b5050600580546001600160a01b031916331790555062000202565b634e487b7160e01b600052604160045260246000fd5b600181811c90821680620000bc57607f821691505b602082108103620000dd57634e487b7160e01b600052602260045260246000fd5b50919050565b601f8211156200013157600081815260208120601f850160051c810160208610156200010c5750805b601f850160051c820191505b818110156200012d5782815560010162000118565b5050505b505050565b81516001600160401b0381111562000152576200015262000091565b6200016a81620001638454620000a7565b84620000e3565b602080601f831160018114620001a25760008415620001895750858301515b600019600386901b1c1916600185901b1785556200012d565b600085815260208120601f198616915b82811015620001d357888601518255948401946001909101908401620001b2565b5085821015620001f25787850151600019600388901b60f8161c191681555b5050505050600190811b01905550565b610b2080620002126000396000f3fe608060405234801561001057600080fd5b50600436106100cf5760003560e01c806370a082311161008c578063a457c2d711610066578063a457c2d7146101b8578063a647e8ec146101cb578063a9059cbb146101de578063dd62ed3e146101f157600080fd5b806370a082311461015c5780638da5cb5b1461018557806395d89b41146101b057600080fd5b806306fdde03146100d4578063095ea7b3146100f257806318160ddd1461011557806323b872dd14610127578063313ce5671461013a5780633950935114610149575b600080fd5b6100dc610204565b6040516100e99190610931565b60405180910390f35b61010561010036600461099b565b610296565b60405190151581526020016100e9565b6002545b6040519081526020016100e9565b6101056101353660046109c5565b6102b0565b604051601281526020016100e9565b61010561015736600461099b565b6102d4565b61011961016a366004610a01565b6001600160a01b031660009081526020819052604090205490565b600554610198906001600160a01b031681565b6040516001600160a01b0390911681526020016100e9565b6100dc6102f6565b6101056101c636600461099b565b610305565b6101056101d9366004610a23565b610385565b6101056101ec36600461099b565b6104ba565b6101196101ff366004610a5c565b610505565b60606003805461021390610a8f565b80601f016020809104026020016040519081016040528092919081815260200182805461023f90610a8f565b801561028c5780601f106102615761010080835404028352916020019161028c565b820191906000526020600020905b81548152906001019060200180831161026f57829003601f168201915b5050505050905090565b6000336102a4818585610530565b60019150505b92915050565b6000336102be858285610654565b6102c98585856106ce565b506001949350505050565b6000336102a48185856102e78383610505565b6102f19190610ac9565b610530565b60606004805461021390610a8f565b600033816103138286610505565b9050838110156103785760405162461bcd60e51b815260206004820152602560248201527f45524332303a2064656372656173656420616c6c6f77616e63652062656c6f77604482015264207a65726f60d81b60648201526084015b60405180910390fd5b6102c98286868403610530565b6005546000906001600160a01b031633146103fd5760405162461bcd60e51b815260206004820152603260248201527f596f7520646f206e6f742068617665207468652072657175697265642070726960448201527176696c6567657320746f20646f207468697360701b606482015260840161036f565b6001600160a01b0385166104535760405162461bcd60e51b815260206004820152601960248201527f43616e6e6f74206d696e7420746f206163636f756e7420307800000000000000604482015260640161036f565b61045d8585610872565b60408051858152426020820152908101849052606081018390526001600160a01b038616907f3446268fc8181c87ca8580504fff9cf33b6de9c160e4989ae91343e75ff741609060800160405180910390a2506001949350505050565b60405162461bcd60e51b815260206004820152601960248201527f5472616e736665727320617265206e6f7420616c6c6f77656400000000000000604482015260009060640161036f565b6001600160a01b03918216600090815260016020908152604080832093909416825291909152205490565b6001600160a01b0383166105925760405162461bcd60e51b8152602060048201526024808201527f45524332303a20617070726f76652066726f6d20746865207a65726f206164646044820152637265737360e01b606482015260840161036f565b6001600160a01b0382166105f35760405162461bcd60e51b815260206004820152602260248201527f45524332303a20617070726f766520746f20746865207a65726f206164647265604482015261737360f01b606482015260840161036f565b6001600160a01b0383811660008181526001602090815260408083209487168084529482529182902085905590518481527f8c5be1e5ebec7d5bd14f71427d1e84f3dd0314c0f7b2291e5b200ac8c7c3b925910160405180910390a3505050565b60006106608484610505565b905060001981146106c857818110156106bb5760405162461bcd60e51b815260206004820152601d60248201527f45524332303a20696e73756666696369656e7420616c6c6f77616e6365000000604482015260640161036f565b6106c88484848403610530565b50505050565b6001600160a01b0383166107325760405162461bcd60e51b815260206004820152602560248201527f45524332303a207472616e736665722066726f6d20746865207a65726f206164604482015264647265737360d81b606482015260840161036f565b6001600160a01b0382166107945760405162461bcd60e51b815260206004820152602360248201527f45524332303a207472616e7366657220746f20746865207a65726f206164647260448201526265737360e81b606482015260840161036f565b6001600160a01b0383166000908152602081905260409020548181101561080c5760405162461bcd60e51b815260206004820152602660248201527f45524332303a207472616e7366657220616d6f756e7420657863656564732062604482015265616c616e636560d01b606482015260840161036f565b6001600160a01b03848116600081815260208181526040808320878703905593871680835291849020805487019055925185815290927fddf252ad1be2c89b69c2b068fc378daa952ba7f163c4a11628f55a4df523b3ef910160405180910390a36106c8565b6001600160a01b0382166108c85760405162461bcd60e51b815260206004820152601f60248201527f45524332303a206d696e7420746f20746865207a65726f206164647265737300604482015260640161036f565b80600260008282546108da9190610ac9565b90915550506001600160a01b038216600081815260208181526040808320805486019055518481527fddf252ad1be2c89b69c2b068fc378daa952ba7f163c4a11628f55a4df523b3ef910160405180910390a35050565b600060208083528351808285015260005b8181101561095e57858101830151858201604001528201610942565b506000604082860101526040601f19601f8301168501019250505092915050565b80356001600160a01b038116811461099657600080fd5b919050565b600080604083850312156109ae57600080fd5b6109b78361097f565b946020939093013593505050565b6000806000606084860312156109da57600080fd5b6109e38461097f565b92506109f16020850161097f565b9150604084013590509250925092565b600060208284031215610a1357600080fd5b610a1c8261097f565b9392505050565b60008060008060808587031215610a3957600080fd5b610a428561097f565b966020860135965060408601359560600135945092505050565b60008060408385031215610a6f57600080fd5b610a788361097f565b9150610a866020840161097f565b90509250929050565b600181811c90821680610aa357607f821691505b602082108103610ac357634e487b7160e01b600052602260045260246000fd5b50919050565b808201808211156102aa57634e487b7160e01b600052601160045260246000fdfea26469706673582212204241676549fb5189ce08d095e975e442a947e9c3806dcf136f5818a41567720264736f6c63430008130033",
  "linkReferences": {},
  "deployedLinkReferences": {}
}