{
  "_format": "hh-sol-artifact-1",
  "contractName": "Businesses",
  "sourceName": "contracts/Businesses.sol",
  "abi": [
    {
      "inputs": [
        {
          "internalType": "address",
          "name": "_addressToken",
          "type": "address"
        },
        {
          "internalType": "address",
          "name": "_addressAttendee",
          "type": "address"
        }
      ],
      "stateMutability": "nonpayable",
      "type": "constructor"
    },
    {
      "anonymous": false,
      "inputs": [
        {
          "indexed": false,
          "internalType": "string",
          "name": "businessName",
          "type": "string"
        },
        {
          "indexed": false,
          "internalType": "uint256",
          "name": "businessID",
          "type": "uint256"
        }
      ],
      "name": "BusinessEnrolled",
      "type": "event"
    },
    {
      "anonymous": false,
      "inputs": [
        {
          "indexed": false,
          "internalType": "uint256",
          "name": "couponID",
          "type": "uint256"
        },
        {
          "indexed": false,
          "internalType": "uint256",
          "name": "businessID",
          "type": "uint256"
        }
      ],
      "name": "CouponCreated",
      "type": "event"
    },
    {
      "anonymous": false,
      "inputs": [
        {
          "indexed": false,
          "internalType": "uint256",
          "name": "couponID",
          "type": "uint256"
        },
        {
          "indexed": false,
          "internalType": "address",
          "name": "buyer",
          "type": "address"
        }
      ],
      "name": "CouponPurchased",
      "type": "event"
    },
    {
      "anonymous": false,
      "inputs": [
        {
          "indexed": false,
          "internalType": "uint256",
          "name": "couponID",
          "type": "uint256"
        },
        {
          "indexed": false,
          "internalType": "address",
          "name": "redeemer",
          "type": "address"
        }
      ],
      "name": "CouponRedeemed",
      "type": "event"
    },
    {
      "inputs": [
        {
          "internalType": "uint256",
          "name": "",
          "type": "uint256"
        }
      ],
      "name": "BusinessesList",
      "outputs": [
        {
          "internalType": "string",
          "name": "",
          "type": "string"
        }
      ],
      "stateMutability": "view",
      "type": "function"
    },
    {
      "inputs": [
        {
          "internalType": "address",
          "name": "",
          "type": "address"
        },
        {
          "internalType": "uint256",
          "name": "",
          "type": "uint256"
        }
      ],
      "name": "attendeeToCouponIDs",
      "outputs": [
        {
          "internalType": "uint256",
          "name": "",
          "type": "uint256"
        }
      ],
      "stateMutability": "view",
      "type": "function"
    },
    {
      "inputs": [
        {
          "internalType": "uint256",
          "name": "",
          "type": "uint256"
        },
        {
          "internalType": "uint256",
          "name": "",
          "type": "uint256"
        }
      ],
      "name": "businessToCouponIDs",
      "outputs": [
        {
          "internalType": "uint256",
          "name": "",
          "type": "uint256"
        }
      ],
      "stateMutability": "view",
      "type": "function"
    },
    {
      "inputs": [
        {
          "internalType": "string",
          "name": "",
          "type": "string"
        }
      ],
      "name": "businessToID",
      "outputs": [
        {
          "internalType": "uint256",
          "name": "",
          "type": "uint256"
        }
      ],
      "stateMutability": "view",
      "type": "function"
    },
    {
      "inputs": [
        {
          "internalType": "uint256",
          "name": "_couponID",
          "type": "uint256"
        }
      ],
      "name": "buyCoupon",
      "outputs": [
        {
          "internalType": "bool",
          "name": "",
          "type": "bool"
        }
      ],
      "stateMutability": "nonpayable",
      "type": "function"
    },
    {
      "inputs": [
        {
          "internalType": "address",
          "name": "_newaddress",
          "type": "address"
        }
      ],
      "name": "changeAttendeeContract",
      "outputs": [
        {
          "internalType": "bool",
          "name": "",
          "type": "bool"
        }
      ],
      "stateMutability": "nonpayable",
      "type": "function"
    },
    {
      "inputs": [
        {
          "internalType": "address",
          "name": "_newaddress",
          "type": "address"
        }
      ],
      "name": "changeTokenContract",
      "outputs": [
        {
          "internalType": "bool",
          "name": "",
          "type": "bool"
        }
      ],
      "stateMutability": "nonpayable",
      "type": "function"
    },
    {
      "inputs": [
        {
          "internalType": "uint256",
          "name": "",
          "type": "uint256"
        }
      ],
      "name": "couponIDToCoupon",
      "outputs": [
        {
          "internalType": "uint256",
          "name": "couponID",
          "type": "uint256"
        },
        {
          "internalType": "uint256",
          "name": "price",
          "type": "uint256"
        },
        {
          "internalType": "uint256",
          "name": "supplyLeft",
          "type": "uint256"
        },
        {
          "internalType": "string",
          "name": "description",
          "type": "string"
        }
      ],
      "stateMutability": "view",
      "type": "function"
    },
    {
      "inputs": [
        {
          "internalType": "string",
          "name": "_businessName",
          "type": "string"
        },
        {
          "internalType": "uint256",
          "name": "_price",
          "type": "uint256"
        },
        {
          "internalType": "uint256",
          "name": "_supply",
          "type": "uint256"
        },
        {
          "internalType": "string",
          "name": "_description",
          "type": "string"
        },
        {
          "internalType": "uint256[]",
          "name": "_banList",
          "type": "uint256[]"
        }
      ],
      "name": "createCoupon",
      "outputs": [
        {
          "internalType": "uint256",
          "name": "",
          "type": "uint256"
        }
      ],
      "stateMutability": "nonpayable",
      "type": "function"
    },
    {
      "inputs": [
        {
          "internalType": "string",
          "name": "_businessName",
          "type": "string"
        }
      ],
      "name": "enrollBusiness",
      "outputs": [
        {
          "internalType": "uint256",
          "name": "",
          "type": "uint256"
        }
      ],
      "stateMutability": "nonpayable",
      "type": "function"
    },
    {
      "inputs": [
        {
          "internalType": "string",
          "name": "_businessname",
          "type": "string"
        }
      ],
      "name": "getBusinessCoupons",
      "outputs": [
        {
          "internalType": "uint256[]",
          "name": "",
          "type": "uint256[]"
        }
      ],
      "stateMutability": "view",
      "type": "function"
    },
    {
      "inputs": [],
      "name": "idCounter",
      "outputs": [
        {
          "internalType": "uint256",
          "name": "",
          "type": "uint256"
        }
      ],
      "stateMutability": "view",
      "type": "function"
    },
    {
      "inputs": [],
      "name": "owner",
      "outputs": [
        {
          "internalType": "address",
          "name": "",
          "type": "address"
        }
      ],
      "stateMutability": "view",
      "type": "function"
    },
    {
      "inputs": [
        {
          "internalType": "uint256",
          "name": "_couponID",
          "type": "uint256"
        }
      ],
      "name": "redeemCoupon",
      "outputs": [
        {
          "internalType": "bool",
          "name": "",
          "type": "bool"
        }
      ],
      "stateMutability": "nonpayable",
      "type": "function"
    }
  ],
  "bytecode": "0x60806040526000600455600060055534801561001a57600080fd5b5060405161141938038061141983398101604081905261003991610091565b600080546001600160a01b03199081163317909155600180546001600160a01b03948516908316179055600280549290931691161790556100c4565b80516001600160a01b038116811461008c57600080fd5b919050565b600080604083850312156100a457600080fd5b6100ad83610075565b91506100bb60208401610075565b90509250929050565b611346806100d36000396000f3fe608060405234801561001057600080fd5b50600436106100ea5760003560e01c80636de22fed1161008c5780638da5cb5b116100665780638da5cb5b146101ee578063adf3178e14610219578063eb08ab2814610244578063f054ad511461024d57600080fd5b80636de22fed146101b557806386d3ebc7146101c85780638d3a09f0146101db57600080fd5b80634ffab34b116100c85780634ffab34b1461015b578063523aee691461016e5780635deb4813146101815780636269b75e146101a257600080fd5b806303a1e8d3146100ef57806312bfd0621461011857806348aad7ac14610138575b600080fd5b6101026100fd366004610d19565b610270565b60405161010f9190610d56565b60405180910390f35b61012b610126366004610d9a565b6102f3565b60405161010f9190610e03565b61014b610146366004610e34565b61039f565b604051901515815260200161010f565b61014b610169366004610d9a565b6103f7565b61014b61017c366004610e34565b610570565b61019461018f366004610e4f565b6105be565b60405190815260200161010f565b6101946101b0366004610e71565b6105ef565b6101946101c3366004610e9b565b61060b565b61014b6101d6366004610d9a565b6107c5565b6101946101e9366004610d19565b610a8d565b600054610201906001600160a01b031681565b6040516001600160a01b03909116815260200161010f565b610194610227366004610d19565b805160208183018101805160068252928201919093012091525481565b61019460045481565b61026061025b366004610d9a565b610ba1565b60405161010f9493929190610f9c565b606060006006836040516102849190610fcb565b9081526040805191829003602090810183205460008181526007835283902080548084028601840190945283855290945091908301828280156102e657602002820191906000526020600020905b8154815260200190600101908083116102d2575b5050505050915050919050565b6003818154811061030357600080fd5b90600052602060002001600091509050805461031e90610fe7565b80601f016020809104026020016040519081016040528092919081815260200182805461034a90610fe7565b80156103975780601f1061036c57610100808354040283529160200191610397565b820191906000526020600020905b81548152906001019060200180831161037a57829003601f168201915b505050505081565b600080546001600160a01b031633146103d35760405162461bcd60e51b81526004016103ca90611021565b60405180910390fd5b50600280546001600160a01b0319166001600160a01b03831617905560015b919050565b336000908152600860205260408120815b815481101561050c578382828154811061042457610424611067565b9060005260206000200154036104fa578154829061044490600190611093565b8154811061045457610454611067565b906000526020600020015482828154811061047157610471611067565b90600052602060002001819055508180548061048f5761048f6110ac565b600190038181906000526020600020016000905590557fdf4a7b33d3d343cc5bcecd868b83bc988e0467e16b378db69931e06f3e41ce8484336040516104e89291909182526001600160a01b0316602082015260400190565b60405180910390a15060019392505050565b80610504816110c2565b915050610408565b5060405162461bcd60e51b815260206004820152603260248201527f596f7520646f206e6f74206f776e2074686520636f75706f6e20796f752061726044820152716520747279696e6720746f2072656465656d60701b60648201526084016103ca565b600080546001600160a01b0316331461059b5760405162461bcd60e51b81526004016103ca90611021565b50600180546001600160a01b0383166001600160a01b0319909116178155919050565b600760205281600052604060002081815481106105da57600080fd5b90600052602060002001600091509150505481565b600860205281600052604060002081815481106105da57600080fd5b60008060068760405161061e9190610fcb565b90815260408051918290036020908101909220546000818152600a9093529120549091506001600160a01b031633146106a75760405162461bcd60e51b815260206004820152602560248201527f596f7520617265206e6f7420746865206f776e6572206f662074686520627573604482015264696e65737360d81b60648201526084016103ca565b60055460008181526009602052604090209081556001810187905560028101869055600381016106d7868261112a565b5060005b845181101561073e5760018260040160008784815181106106fe576106fe611067565b6020026020010151815260200190815260200160002060006101000a81548160ff0219169083151502179055508080610736906110c2565b9150506106db565b50600082815260076020908152604082206005805482546001810184558386529385209093019290925581549092909190610778836110c2565b9091555050815460408051918252602082018590527fa642f6125031e33b459faac09c60d43622ebedeb338901054283d9bb430deb12910160405180910390a15054979650505050505050565b600081815260096020526040808220600181015460025492516312ef4f2f60e31b81523360048201529192909184916001600160a01b03169063977a797890602401600060405180830381865afa158015610824573d6000803e3d6000fd5b505050506040513d6000823e601f3d908101601f1916820160405261084c919081019061122f565b600081815260048701602052604090205490935060ff1691505080156108c25760405162461bcd60e51b815260206004820152602560248201527f596f75206172652070617274206f6620612062616e6e6564206f7267616e697a60448201526430ba34b7b760d91b60648201526084016103ca565b6001546040516370a0823160e01b815233600482015284916001600160a01b0316906370a0823190602401602060405180830381865afa15801561090a573d6000803e3d6000fd5b505050506040513d601f19601f8201168201806040525081019061092e919061129c565b101561093957600080fd5b600084600201541161098d5760405162461bcd60e51b815260206004820152601960248201527f546865726520617265206e6f20636f75706f6e73206c6566740000000000000060448201526064016103ca565b6001546040516323b872dd60e01b8152336004820152306024820152604481018590526001600160a01b03909116906323b872dd906064016020604051808303816000875af11580156109e4573d6000803e3d6000fd5b505050506040513d601f19601f82011682018060405250810190610a0891906112b5565b50600284018054906000610a1b836112d7565b90915550503360008181526008602090815260408083208054600181018255818552938390209093018a905580518a81529182019390935290917f7bbd7a1691c7cbe9520fd112b43e9c217763760f24cd94e11bc4e9dc279e2382910160405180910390a15060019695505050505050565b6000600454600683604051610aa29190610fcb565b90815260408051918290036020908101909220929092556004546000908152600a90915290812080546001600160a01b031916331790556003805460018101825591527fc2575a0e9e593c00f959f8c92f12db2869c3395a3b0502d05e2516446f71f85b01610b11838261112a565b5060048054906000610b22836110c2565b91905055507fd0f4474b74a1241139c1d7e0a8f1e57ddb2234c00daa32641f96a9ed60170cf082600684604051610b599190610fcb565b90815260405190819003602001812054610b7392916112ee565b60405180910390a1600682604051610b8b9190610fcb565b9081526020016040518091039020549050919050565b600960205260009081526040902080546001820154600283015460038401805493949293919291610bd190610fe7565b80601f0160208091040260200160405190810160405280929190818152602001828054610bfd90610fe7565b8015610c4a5780601f10610c1f57610100808354040283529160200191610c4a565b820191906000526020600020905b815481529060010190602001808311610c2d57829003601f168201915b5050505050905084565b634e487b7160e01b600052604160045260246000fd5b604051601f8201601f1916810167ffffffffffffffff81118282101715610c9357610c93610c54565b604052919050565b600067ffffffffffffffff821115610cb557610cb5610c54565b50601f01601f191660200190565b600082601f830112610cd457600080fd5b8135610ce7610ce282610c9b565b610c6a565b818152846020838601011115610cfc57600080fd5b816020850160208301376000918101602001919091529392505050565b600060208284031215610d2b57600080fd5b813567ffffffffffffffff811115610d4257600080fd5b610d4e84828501610cc3565b949350505050565b6020808252825182820181905260009190848201906040850190845b81811015610d8e57835183529284019291840191600101610d72565b50909695505050505050565b600060208284031215610dac57600080fd5b5035919050565b60005b83811015610dce578181015183820152602001610db6565b50506000910152565b60008151808452610def816020860160208601610db3565b601f01601f19169290920160200192915050565b602081526000610e166020830184610dd7565b9392505050565b80356001600160a01b03811681146103f257600080fd5b600060208284031215610e4657600080fd5b610e1682610e1d565b60008060408385031215610e6257600080fd5b50508035926020909101359150565b60008060408385031215610e8457600080fd5b610e8d83610e1d565b946020939093013593505050565b600080600080600060a08688031215610eb357600080fd5b853567ffffffffffffffff80821115610ecb57600080fd5b610ed789838a01610cc3565b96506020915081880135955060408801359450606088013581811115610efc57600080fd5b610f088a828b01610cc3565b945050608088013581811115610f1d57600080fd5b8801601f81018a13610f2e57600080fd5b803582811115610f4057610f40610c54565b8060051b9250610f51848401610c6a565b818152928201840192848101908c851115610f6b57600080fd5b928501925b84841015610f8957833582529285019290850190610f70565b8096505050505050509295509295909350565b848152836020820152826040820152608060608201526000610fc16080830184610dd7565b9695505050505050565b60008251610fdd818460208701610db3565b9190910192915050565b600181811c90821680610ffb57607f821691505b60208210810361101b57634e487b7160e01b600052602260045260246000fd5b50919050565b60208082526026908201527f596f7520617265206e6f7420746865206f776e6572206f66207468697320636f6040820152651b9d1c9858dd60d21b606082015260800190565b634e487b7160e01b600052603260045260246000fd5b634e487b7160e01b600052601160045260246000fd5b818103818111156110a6576110a661107d565b92915050565b634e487b7160e01b600052603160045260246000fd5b6000600182016110d4576110d461107d565b5060010190565b601f82111561112557600081815260208120601f850160051c810160208610156111025750805b601f850160051c820191505b818110156111215782815560010161110e565b5050505b505050565b815167ffffffffffffffff81111561114457611144610c54565b611158816111528454610fe7565b846110db565b602080601f83116001811461118d57600084156111755750858301515b600019600386901b1c1916600185901b178555611121565b600085815260208120601f198616915b828110156111bc5788860151825594840194600190910190840161119d565b50858210156111da5787850151600019600388901b60f8161c191681555b5050505050600190811b01905550565b600082601f8301126111fb57600080fd5b8151611209610ce282610c9b565b81815284602083860101111561121e57600080fd5b610d4e826020830160208701610db3565b60008060006060848603121561124457600080fd5b835167ffffffffffffffff8082111561125c57600080fd5b611268878388016111ea565b9450602086015191508082111561127e57600080fd5b5061128b868287016111ea565b925050604084015190509250925092565b6000602082840312156112ae57600080fd5b5051919050565b6000602082840312156112c757600080fd5b81518015158114610e1657600080fd5b6000816112e6576112e661107d565b506000190190565b6040815260006113016040830185610dd7565b9050826020830152939250505056fea264697066735822122065813ae98002fae94bf63c5416fd27cd0c445215af206db964bd425f797f3c6c64736f6c63430008130033",
  "linkReferences": {},
  "deployedLinkReferences": {}
}