{
  "_format": "hh-sol-artifact-1",
  "contractName": "Wallet",
  "sourceName": "contracts/Wallet.sol",
  "abi": [
    {
      "inputs": [
        {
          "internalType": "address",
          "name": "_owner",
          "type": "address"
        },
        {
          "internalType": "string",
          "name": "_id",
          "type": "string"
        },
        {
          "internalType": "address",
          "name": "_attendees",
          "type": "address"
        },
        {
          "internalType": "address",
          "name": "_token",
          "type": "address"
        },
        {
          "internalType": "address",
          "name": "_businesses",
          "type": "address"
        },
        {
          "internalType": "string",
          "name": "_organization",
          "type": "string"
        }
      ],
      "stateMutability": "nonpayable",
      "type": "constructor"
    },
    {
      "inputs": [
        {
          "internalType": "address",
          "name": "_address",
          "type": "address"
        }
      ],
      "name": "addSigner",
      "outputs": [
        {
          "internalType": "bool",
          "name": "",
          "type": "bool"
        }
      ],
      "stateMutability": "nonpayable",
      "type": "function"
    },
    {
      "inputs": [
        {
          "internalType": "uint256",
          "name": "_couponID",
          "type": "uint256"
        }
      ],
      "name": "buyCoupon",
      "outputs": [
        {
          "internalType": "bool",
          "name": "",
          "type": "bool"
        }
      ],
      "stateMutability": "nonpayable",
      "type": "function"
    },
    {
      "inputs": [],
      "name": "owner",
      "outputs": [
        {
          "internalType": "address",
          "name": "",
          "type": "address"
        }
      ],
      "stateMutability": "view",
      "type": "function"
    },
    {
      "inputs": [
        {
          "internalType": "uint256",
          "name": "_couponID",
          "type": "uint256"
        }
      ],
      "name": "redeemCoupon",
      "outputs": [
        {
          "internalType": "bool",
          "name": "",
          "type": "bool"
        }
      ],
      "stateMutability": "nonpayable",
      "type": "function"
    },
    {
      "inputs": [
        {
          "internalType": "address",
          "name": "_address",
          "type": "address"
        }
      ],
      "name": "removeSigner",
      "outputs": [
        {
          "internalType": "bool",
          "name": "",
          "type": "bool"
        }
      ],
      "stateMutability": "nonpayable",
      "type": "function"
    }
  ],
  "bytecode": "0x608060405234801561001057600080fd5b506040516107dc3803806107dc83398101604081905261002f916101df565b600180546001600160a01b038087166001600160a01b03199283161783556002805487831690841617905560038054868316908416179055600080548a831693168317815591825260046020819052604092839020805460ff19168517905592549151630f57f08760e01b8152911691630f57f087916100b3913091869101610284565b6020604051808303816000875af11580156100d2573d6000803e3d6000fd5b505050506040513d601f19601f820116820180604052508101906100f691906102c6565b505050505050506102ef565b80516001600160a01b038116811461011957600080fd5b919050565b634e487b7160e01b600052604160045260246000fd5b60005b8381101561014f578181015183820152602001610137565b50506000910152565b600082601f83011261016957600080fd5b81516001600160401b03808211156101835761018361011e565b604051601f8301601f19908116603f011681019082821181831017156101ab576101ab61011e565b816040528381528660208588010111156101c457600080fd5b6101d5846020830160208901610134565b9695505050505050565b60008060008060008060c087890312156101f857600080fd5b61020187610102565b60208801519096506001600160401b038082111561021e57600080fd5b61022a8a838b01610158565b965061023860408a01610102565b955061024660608a01610102565b945061025460808a01610102565b935060a089015191508082111561026a57600080fd5b5061027789828a01610158565b9150509295509295509295565b60018060a01b038316815260406020820152600082518060408401526102b1816060850160208701610134565b601f01601f1916919091016060019392505050565b6000602082840312156102d857600080fd5b815180151581146102e857600080fd5b9392505050565b6104de806102fe6000396000f3fe608060405234801561001057600080fd5b50600436106100575760003560e01c80630e316ab71461005c5780634ffab34b1461008457806386d3ebc7146100975780638da5cb5b146100aa578063eb12d61e146100d5575b600080fd5b61006f61006a3660046103d8565b6100e8565b60405190151581526020015b60405180910390f35b61006f610092366004610408565b610145565b61006f6100a5366004610408565b6101ec565b6000546100bd906001600160a01b031681565b6040516001600160a01b03909116815260200161007b565b61006f6100e33660046103d8565b610380565b3360009081526004602052604081205460ff166101205760405162461bcd60e51b815260040161011790610421565b60405180910390fd5b506001600160a01b03166000908152600460205260409020805460ff19169055600190565b3360009081526004602052604081205460ff166101745760405162461bcd60e51b815260040161011790610421565b600354604051634ffab34b60e01b8152600481018490526001600160a01b0390911690634ffab34b906024016020604051808303816000875af11580156101bf573d6000803e3d6000fd5b505050506040513d601f19601f820116820180604052508101906101e39190610458565b50600192915050565b3360009081526004602052604081205460ff1661021b5760405162461bcd60e51b815260040161011790610421565b600354604051632e9ee91960e11b8152600481018490526000916001600160a01b031690635d3dd23290602401606060405180830381865afa158015610265573d6000803e3d6000fd5b505050506040513d601f19601f82011682018060405250810190610289919061047a565b5060025460035460405163095ea7b360e01b81526001600160a01b0391821660048201526024810184905292945016915063095ea7b3906044016020604051808303816000875af11580156102e2573d6000803e3d6000fd5b505050506040513d601f19601f820116820180604052508101906103069190610458565b506003546040516386d3ebc760e01b8152600481018590526001600160a01b03909116906386d3ebc7906024016020604051808303816000875af1158015610352573d6000803e3d6000fd5b505050506040513d601f19601f820116820180604052508101906103769190610458565b5060019392505050565b3360009081526004602052604081205460ff166103af5760405162461bcd60e51b815260040161011790610421565b506001600160a01b03166000908152600460205260409020805460ff1916600190811790915590565b6000602082840312156103ea57600080fd5b81356001600160a01b038116811461040157600080fd5b9392505050565b60006020828403121561041a57600080fd5b5035919050565b6020808252601e908201527f596f7520617265206e6f7420616e20617070726f7665642063616c6c65720000604082015260600190565b60006020828403121561046a57600080fd5b8151801515811461040157600080fd5b60008060006060848603121561048f57600080fd5b835192506020840151915060408401519050925092509256fea26469706673582212207845e58e080095b5b78580e68516db47a04b4f504e294b6dfcf436a00bb62acf64736f6c63430008130033",
  "linkReferences": {},
  "deployedLinkReferences": {}
}