{
  "_format": "hh-sol-artifact-1",
  "contractName": "WalletFactory",
  "sourceName": "contracts/WalletFactory.sol",
  "abi": [
    {
      "inputs": [],
      "stateMutability": "nonpayable",
      "type": "constructor"
    },
    {
      "anonymous": false,
      "inputs": [
        {
          "indexed": false,
          "internalType": "string",
          "name": "_authId",
          "type": "string"
        },
        {
          "indexed": false,
          "internalType": "string",
          "name": "_organization",
          "type": "string"
        },
        {
          "indexed": false,
          "internalType": "uint256",
          "name": "time",
          "type": "uint256"
        },
        {
          "indexed": false,
          "internalType": "address",
          "name": "_address",
          "type": "address"
        },
        {
          "indexed": false,
          "internalType": "string",
          "name": "_userType",
          "type": "string"
        }
      ],
      "name": "WalletCreated",
      "type": "event"
    },
    {
      "inputs": [
        {
          "internalType": "uint256",
          "name": "",
          "type": "uint256"
        }
      ],
      "name": "Wallets",
      "outputs": [
        {
          "internalType": "address",
          "name": "",
          "type": "address"
        }
      ],
      "stateMutability": "view",
      "type": "function"
    },
    {
      "inputs": [
        {
          "internalType": "address",
          "name": "_owner",
          "type": "address"
        },
        {
          "internalType": "string",
          "name": "_authId",
          "type": "string"
        },
        {
          "internalType": "string",
          "name": "_userType",
          "type": "string"
        },
        {
          "internalType": "address",
          "name": "_attendees",
          "type": "address"
        },
        {
          "internalType": "address",
          "name": "_token",
          "type": "address"
        },
        {
          "internalType": "address",
          "name": "_businesses",
          "type": "address"
        },
        {
          "internalType": "string",
          "name": "_organization",
          "type": "string"
        }
      ],
      "name": "createWallet",
      "outputs": [
        {
          "internalType": "bool",
          "name": "",
          "type": "bool"
        }
      ],
      "stateMutability": "nonpayable",
      "type": "function"
    },
    {
      "inputs": [],
      "name": "owner",
      "outputs": [
        {
          "internalType": "address",
          "name": "",
          "type": "address"
        }
      ],
      "stateMutability": "view",
      "type": "function"
    }
  ],
  "bytecode": "0x608060405234801561001057600080fd5b50600180546001600160a01b03191633179055610c87806100326000396000f3fe608060405234801561001057600080fd5b50600436106100415760003560e01c80638da5cb5b14610046578063dc41e9df14610076578063e895877514610099575b600080fd5b600154610059906001600160a01b031681565b6040516001600160a01b0390911681526020015b60405180910390f35b610089610084366004610296565b6100ac565b604051901515815260200161006d565b6100596100a7366004610361565b6101a0565b6001546000906001600160a01b031633146100c657600080fd5b60008888878787876040516100da906101ca565b6100e9969594939291906103c0565b604051809103906000f080158015610105573d6000803e3d6000fd5b50600080546001810182559080527f290decd9548b62a8d60345a988386fc84ba6bc95484008f6362f93160ef3e5630180546001600160a01b0319166001600160a01b0383161790556040519091507fa058a1a61daa9b4eec07fff4b30b7f12981230f8cf1fdbee26c83a4efa48c66b90610189908a908690429086908d9061041a565b60405180910390a150600198975050505050505050565b600081815481106101b057600080fd5b6000918252602090912001546001600160a01b0316905081565b6107dc8061047683390190565b80356001600160a01b03811681146101ee57600080fd5b919050565b634e487b7160e01b600052604160045260246000fd5b600082601f83011261021a57600080fd5b813567ffffffffffffffff80821115610235576102356101f3565b604051601f8301601f19908116603f0116810190828211818310171561025d5761025d6101f3565b8160405283815286602085880101111561027657600080fd5b836020870160208301376000602085830101528094505050505092915050565b600080600080600080600060e0888a0312156102b157600080fd5b6102ba886101d7565b9650602088013567ffffffffffffffff808211156102d757600080fd5b6102e38b838c01610209565b975060408a01359150808211156102f957600080fd5b6103058b838c01610209565b965061031360608b016101d7565b955061032160808b016101d7565b945061032f60a08b016101d7565b935060c08a013591508082111561034557600080fd5b506103528a828b01610209565b91505092959891949750929550565b60006020828403121561037357600080fd5b5035919050565b6000815180845260005b818110156103a057602081850181015186830182015201610384565b506000602082860101526020601f19601f83011685010191505092915050565b600060018060a01b03808916835260c060208401526103e260c084018961037a565b81881660408501528187166060850152818616608085015283810360a085015261040c818661037a565b9a9950505050505050505050565b60a08152600061042d60a083018861037a565b828103602084015261043f818861037a565b604084018790526001600160a01b038616606085015283810360808501529050610469818561037a565b9897505050505050505056fe608060405234801561001057600080fd5b506040516107dc3803806107dc83398101604081905261002f916101df565b600180546001600160a01b038087166001600160a01b03199283161783556002805487831690841617905560038054868316908416179055600080548a831693168317815591825260046020819052604092839020805460ff19168517905592549151630f57f08760e01b8152911691630f57f087916100b3913091869101610284565b6020604051808303816000875af11580156100d2573d6000803e3d6000fd5b505050506040513d601f19601f820116820180604052508101906100f691906102c6565b505050505050506102ef565b80516001600160a01b038116811461011957600080fd5b919050565b634e487b7160e01b600052604160045260246000fd5b60005b8381101561014f578181015183820152602001610137565b50506000910152565b600082601f83011261016957600080fd5b81516001600160401b03808211156101835761018361011e565b604051601f8301601f19908116603f011681019082821181831017156101ab576101ab61011e565b816040528381528660208588010111156101c457600080fd5b6101d5846020830160208901610134565b9695505050505050565b60008060008060008060c087890312156101f857600080fd5b61020187610102565b60208801519096506001600160401b038082111561021e57600080fd5b61022a8a838b01610158565b965061023860408a01610102565b955061024660608a01610102565b945061025460808a01610102565b935060a089015191508082111561026a57600080fd5b5061027789828a01610158565b9150509295509295509295565b60018060a01b038316815260406020820152600082518060408401526102b1816060850160208701610134565b601f01601f1916919091016060019392505050565b6000602082840312156102d857600080fd5b815180151581146102e857600080fd5b9392505050565b6104de806102fe6000396000f3fe608060405234801561001057600080fd5b50600436106100575760003560e01c80630e316ab71461005c5780634ffab34b1461008457806386d3ebc7146100975780638da5cb5b146100aa578063eb12d61e146100d5575b600080fd5b61006f61006a3660046103d8565b6100e8565b60405190151581526020015b60405180910390f35b61006f610092366004610408565b610145565b61006f6100a5366004610408565b6101ec565b6000546100bd906001600160a01b031681565b6040516001600160a01b03909116815260200161007b565b61006f6100e33660046103d8565b610380565b3360009081526004602052604081205460ff166101205760405162461bcd60e51b815260040161011790610421565b60405180910390fd5b506001600160a01b03166000908152600460205260409020805460ff19169055600190565b3360009081526004602052604081205460ff166101745760405162461bcd60e51b815260040161011790610421565b600354604051634ffab34b60e01b8152600481018490526001600160a01b0390911690634ffab34b906024016020604051808303816000875af11580156101bf573d6000803e3d6000fd5b505050506040513d601f19601f820116820180604052508101906101e39190610458565b50600192915050565b3360009081526004602052604081205460ff1661021b5760405162461bcd60e51b815260040161011790610421565b600354604051632e9ee91960e11b8152600481018490526000916001600160a01b031690635d3dd23290602401606060405180830381865afa158015610265573d6000803e3d6000fd5b505050506040513d601f19601f82011682018060405250810190610289919061047a565b5060025460035460405163095ea7b360e01b81526001600160a01b0391821660048201526024810184905292945016915063095ea7b3906044016020604051808303816000875af11580156102e2573d6000803e3d6000fd5b505050506040513d601f19601f820116820180604052508101906103069190610458565b506003546040516386d3ebc760e01b8152600481018590526001600160a01b03909116906386d3ebc7906024016020604051808303816000875af1158015610352573d6000803e3d6000fd5b505050506040513d601f19601f820116820180604052508101906103769190610458565b5060019392505050565b3360009081526004602052604081205460ff166103af5760405162461bcd60e51b815260040161011790610421565b506001600160a01b03166000908152600460205260409020805460ff1916600190811790915590565b6000602082840312156103ea57600080fd5b81356001600160a01b038116811461040157600080fd5b9392505050565b60006020828403121561041a57600080fd5b5035919050565b6020808252601e908201527f596f7520617265206e6f7420616e20617070726f7665642063616c6c65720000604082015260600190565b60006020828403121561046a57600080fd5b8151801515811461040157600080fd5b60008060006060848603121561048f57600080fd5b835192506020840151915060408401519050925092509256fea26469706673582212207845e58e080095b5b78580e68516db47a04b4f504e294b6dfcf436a00bb62acf64736f6c63430008130033a2646970667358221220d66fe360aca461713a463daf1ee29e8317529a366e71b035585a4772614ff67964736f6c63430008130033",
  "linkReferences": {},
  "deployedLinkReferences": {}
}