{
  "_format": "hh-sol-artifact-1",
  "contractName": "AttendanceToken",
  "sourceName": "contracts/AttendanceToken.sol",
  "abi": [
    {
      "inputs": [],
      "stateMutability": "nonpayable",
      "type": "constructor"
    },
    {
      "anonymous": false,
      "inputs": [
        {
          "indexed": true,
          "internalType": "address",
          "name": "owner",
          "type": "address"
        },
        {
          "indexed": true,
          "internalType": "address",
          "name": "spender",
          "type": "address"
        },
        {
          "indexed": false,
          "internalType": "uint256",
          "name": "value",
          "type": "uint256"
        }
      ],
      "name": "Approval",
      "type": "event"
    },
    {
      "anonymous": false,
      "inputs": [
        {
          "indexed": true,
          "internalType": "address",
          "name": "from",
          "type": "address"
        },
        {
          "indexed": true,
          "internalType": "address",
          "name": "to",
          "type": "address"
        },
        {
          "indexed": false,
          "internalType": "uint256",
          "name": "value",
          "type": "uint256"
        }
      ],
      "name": "Transfer",
      "type": "event"
    },
    {
      "inputs": [
        {
          "internalType": "address",
          "name": "owner",
          "type": "address"
        },
        {
          "internalType": "address",
          "name": "spender",
          "type": "address"
        }
      ],
      "name": "allowance",
      "outputs": [
        {
          "internalType": "uint256",
          "name": "",
          "type": "uint256"
        }
      ],
      "stateMutability": "view",
      "type": "function"
    },
    {
      "inputs": [
        {
          "internalType": "address",
          "name": "spender",
          "type": "address"
        },
        {
          "internalType": "uint256",
          "name": "amount",
          "type": "uint256"
        }
      ],
      "name": "approve",
      "outputs": [
        {
          "internalType": "bool",
          "name": "",
          "type": "bool"
        }
      ],
      "stateMutability": "nonpayable",
      "type": "function"
    },
    {
      "inputs": [
        {
          "internalType": "address",
          "name": "account",
          "type": "address"
        }
      ],
      "name": "balanceOf",
      "outputs": [
        {
          "internalType": "uint256",
          "name": "",
          "type": "uint256"
        }
      ],
      "stateMutability": "view",
      "type": "function"
    },
    {
      "inputs": [],
      "name": "decimals",
      "outputs": [
        {
          "internalType": "uint8",
          "name": "",
          "type": "uint8"
        }
      ],
      "stateMutability": "view",
      "type": "function"
    },
    {
      "inputs": [
        {
          "internalType": "address",
          "name": "spender",
          "type": "address"
        },
        {
          "internalType": "uint256",
          "name": "subtractedValue",
          "type": "uint256"
        }
      ],
      "name": "decreaseAllowance",
      "outputs": [
        {
          "internalType": "bool",
          "name": "",
          "type": "bool"
        }
      ],
      "stateMutability": "nonpayable",
      "type": "function"
    },
    {
      "inputs": [
        {
          "internalType": "address",
          "name": "spender",
          "type": "address"
        },
        {
          "internalType": "uint256",
          "name": "addedValue",
          "type": "uint256"
        }
      ],
      "name": "increaseAllowance",
      "outputs": [
        {
          "internalType": "bool",
          "name": "",
          "type": "bool"
        }
      ],
      "stateMutability": "nonpayable",
      "type": "function"
    },
    {
      "inputs": [
        {
          "internalType": "address",
          "name": "_to",
          "type": "address"
        },
        {
          "internalType": "uint256",
          "name": "_amount",
          "type": "uint256"
        }
      ],
      "name": "mint",
      "outputs": [
        {
          "internalType": "bool",
          "name": "",
          "type": "bool"
        }
      ],
      "stateMutability": "nonpayable",
      "type": "function"
    },
    {
      "inputs": [],
      "name": "name",
      "outputs": [
        {
          "internalType": "string",
          "name": "",
          "type": "string"
        }
      ],
      "stateMutability": "view",
      "type": "function"
    },
    {
      "inputs": [],
      "name": "owner",
      "outputs": [
        {
          "internalType": "address",
          "name": "",
          "type": "address"
        }
      ],
      "stateMutability": "view",
      "type": "function"
    },
    {
      "inputs": [],
      "name": "symbol",
      "outputs": [
        {
          "internalType": "string",
          "name": "",
          "type": "string"
        }
      ],
      "stateMutability": "view",
      "type": "function"
    },
    {
      "inputs": [],
      "name": "totalSupply",
      "outputs": [
        {
          "internalType": "uint256",
          "name": "",
          "type": "uint256"
        }
      ],
      "stateMutability": "view",
      "type": "function"
    },
    {
      "inputs": [
        {
          "internalType": "address",
          "name": "",
          "type": "address"
        },
        {
          "internalType": "uint256",
          "name": "",
          "type": "uint256"
        }
      ],
      "name": "transfer",
      "outputs": [
        {
          "internalType": "bool",
          "name": "",
          "type": "bool"
        }
      ],
      "stateMutability": "pure",
      "type": "function"
    },
    {
      "inputs": [
        {
          "internalType": "address",
          "name": "from",
          "type": "address"
        },
        {
          "internalType": "address",
          "name": "to",
          "type": "address"
        },
        {
          "internalType": "uint256",
          "name": "amount",
          "type": "uint256"
        }
      ],
      "name": "transferFrom",
      "outputs": [
        {
          "internalType": "bool",
          "name": "",
          "type": "bool"
        }
      ],
      "stateMutability": "nonpayable",
      "type": "function"
    }
  ],
  "bytecode": "0x608060405234801561001057600080fd5b50604080518082018252601081526f20ba3a32b73230b731b2902a37b5b2b760811b602080830191825283518085019094526002845261105560f21b9084015281519192916100619160039161008f565b50805161007590600490602084019061008f565b5050600580546001600160a01b0319163317905550610163565b82805461009b90610128565b90600052602060002090601f0160209004810192826100bd5760008555610103565b82601f106100d657805160ff1916838001178555610103565b82800160010185558215610103579182015b828111156101035782518255916020019190600101906100e8565b5061010f929150610113565b5090565b5b8082111561010f5760008155600101610114565b60028104600182168061013c57607f821691505b6020821081141561015d57634e487b7160e01b600052602260045260246000fd5b50919050565b610b9880620001736000396000f3fe608060405234801561001057600080fd5b50600436106100cf5760003560e01c806340c10f191161008c57806395d89b411161006657806395d89b411461019d578063a457c2d7146101a5578063a9059cbb146101b8578063dd62ed3e146101cb576100cf565b806340c10f191461016257806370a08231146101755780638da5cb5b14610188576100cf565b806306fdde03146100d4578063095ea7b3146100f257806318160ddd1461011257806323b872dd14610127578063313ce5671461013a578063395093511461014f575b600080fd5b6100dc6101de565b6040516100e991906107d3565b60405180910390f35b61010561010036600461078b565b610270565b6040516100e991906107c8565b61011a610292565b6040516100e99190610aec565b610105610135366004610750565b610298565b6101426102c6565b6040516100e99190610af5565b61010561015d36600461078b565b6102cb565b61010561017036600461078b565b6102f7565b61011a6101833660046106fd565b610366565b610190610385565b6040516100e991906107b4565b6100dc610394565b6101056101b336600461078b565b6103a3565b6101056101c636600461078b565b6103eb565b61011a6101d936600461071e565b610405565b6060600380546101ed90610b27565b80601f016020809104026020016040519081016040528092919081815260200182805461021990610b27565b80156102665780601f1061023b57610100808354040283529160200191610266565b820191906000526020600020905b81548152906001019060200180831161024957829003601f168201915b5050505050905090565b60008061027b610430565b9050610288818585610434565b5060019392505050565b60025490565b6000806102a3610430565b90506102b08582856104e8565b6102bb858585610532565b506001949350505050565b601290565b6000806102d6610430565b90506102888185856102e88589610405565b6102f29190610b03565b610434565b6005546000906001600160a01b0316331461032d5760405162461bcd60e51b815260040161032490610869565b60405180910390fd5b6001600160a01b0383166103535760405162461bcd60e51b8152600401610324906109b0565b61035d8383610633565b50600192915050565b6001600160a01b0381166000908152602081905260409020545b919050565b6005546001600160a01b031681565b6060600480546101ed90610b27565b6000806103ae610430565b905060006103bc8286610405565b9050838110156103de5760405162461bcd60e51b815260040161032490610a70565b6102bb8286868403610434565b600060405162461bcd60e51b815260040161032490610979565b6001600160a01b03918216600090815260016020908152604080832093909416825291909152205490565b3390565b6001600160a01b03831661045a5760405162461bcd60e51b815260040161032490610a2c565b6001600160a01b0382166104805760405162461bcd60e51b8152600401610324906108ba565b6001600160a01b0380841660008181526001602090815260408083209487168084529490915290819020849055517f8c5be1e5ebec7d5bd14f71427d1e84f3dd0314c0f7b2291e5b200ac8c7c3b925906104db908590610aec565b60405180910390a3505050565b60006104f48484610405565b9050600019811461052c578181101561051f5760405162461bcd60e51b8152600401610324906108fc565b61052c8484848403610434565b50505050565b6001600160a01b0383166105585760405162461bcd60e51b8152600401610324906109e7565b6001600160a01b03821661057e5760405162461bcd60e51b815260040161032490610826565b6105898383836106e1565b6001600160a01b038316600090815260208190526040902054818110156105c25760405162461bcd60e51b815260040161032490610933565b6001600160a01b0380851660008181526020819052604080822086860390559286168082529083902080548601905591517fddf252ad1be2c89b69c2b068fc378daa952ba7f163c4a11628f55a4df523b3ef90610620908690610aec565b60405180910390a361052c8484846106e1565b6001600160a01b0382166106595760405162461bcd60e51b815260040161032490610ab5565b610665600083836106e1565b80600260008282546106779190610b03565b90915550506001600160a01b038216600081815260208190526040808220805485019055517fddf252ad1be2c89b69c2b068fc378daa952ba7f163c4a11628f55a4df523b3ef906106c9908590610aec565b60405180910390a36106dd600083836106e1565b5050565b505050565b80356001600160a01b038116811461038057600080fd5b60006020828403121561070e578081fd5b610717826106e6565b9392505050565b60008060408385031215610730578081fd5b610739836106e6565b9150610747602084016106e6565b90509250929050565b600080600060608486031215610764578081fd5b61076d846106e6565b925061077b602085016106e6565b9150604084013590509250925092565b6000806040838503121561079d578182fd5b6107a6836106e6565b946020939093013593505050565b6001600160a01b0391909116815260200190565b901515815260200190565b6000602080835283518082850152825b818110156107ff578581018301518582016040015282016107e3565b818111156108105783604083870101525b50601f01601f1916929092016040019392505050565b60208082526023908201527f45524332303a207472616e7366657220746f20746865207a65726f206164647260408201526265737360e81b606082015260800190565b60208082526031908201527f596f7520646f206e6f7420686176652074686520726571756972652070726976604082015270696c6967657320746f20646f207468697360781b606082015260800190565b60208082526022908201527f45524332303a20617070726f766520746f20746865207a65726f206164647265604082015261737360f01b606082015260800190565b6020808252601d908201527f45524332303a20696e73756666696369656e7420616c6c6f77616e6365000000604082015260600190565b60208082526026908201527f45524332303a207472616e7366657220616d6f756e7420657863656564732062604082015265616c616e636560d01b606082015260800190565b60208082526019908201527f5472616e736665727320617265206e6f7420616c6c6f77656400000000000000604082015260600190565b60208082526019908201527f43616e6e6f74206d696e7420746f206163636f756e7420307800000000000000604082015260600190565b60208082526025908201527f45524332303a207472616e736665722066726f6d20746865207a65726f206164604082015264647265737360d81b606082015260800190565b60208082526024908201527f45524332303a20617070726f76652066726f6d20746865207a65726f206164646040820152637265737360e01b606082015260800190565b60208082526025908201527f45524332303a2064656372656173656420616c6c6f77616e63652062656c6f77604082015264207a65726f60d81b606082015260800190565b6020808252601f908201527f45524332303a206d696e7420746f20746865207a65726f206164647265737300604082015260600190565b90815260200190565b60ff91909116815260200190565b60008219821115610b2257634e487b7160e01b81526011600452602481fd5b500190565b600281046001821680610b3b57607f821691505b60208210811415610b5c57634e487b7160e01b600052602260045260246000fd5b5091905056fea26469706673582212204360ea94e6c9b1a04e4286062e816ab375b84a6218d3bf2afa2dcb1e1183fc5764736f6c63430008000033",
  "linkReferences": {},
  "deployedLinkReferences": {}
}