{
  "_format": "hh-sol-artifact-1",
  "contractName": "Classes",
  "sourceName": "contracts/Classes.sol",
  "abi": [
    {
      "inputs": [],
      "stateMutability": "nonpayable",
      "type": "constructor"
    },
    {
      "anonymous": false,
      "inputs": [
        {
          "indexed": false,
          "internalType": "string",
          "name": "className",
          "type": "string"
        },
        {
          "indexed": false,
          "internalType": "uint256",
          "name": "classId",
          "type": "uint256"
        },
        {
          "indexed": false,
          "internalType": "uint256",
          "name": "time",
          "type": "uint256"
        }
      ],
      "name": "EnrolledClass",
      "type": "event"
    },
    {
      "anonymous": false,
      "inputs": [
        {
          "indexed": false,
          "internalType": "string",
          "name": "className",
          "type": "string"
        },
        {
          "indexed": false,
          "internalType": "uint256",
          "name": "classId",
          "type": "uint256"
        },
        {
          "indexed": false,
          "internalType": "uint256",
          "name": "sessionId",
          "type": "uint256"
        },
        {
          "indexed": false,
          "internalType": "uint256",
          "name": "time",
          "type": "uint256"
        }
      ],
      "name": "EnrolledClassSession",
      "type": "event"
    },
    {
      "inputs": [
        {
          "internalType": "string",
          "name": "",
          "type": "string"
        }
      ],
      "name": "classToId",
      "outputs": [
        {
          "internalType": "uint256",
          "name": "",
          "type": "uint256"
        }
      ],
      "stateMutability": "view",
      "type": "function"
    },
    {
      "inputs": [
        {
          "internalType": "string",
          "name": "_className",
          "type": "string"
        },
        {
          "internalType": "uint256",
          "name": "_id",
          "type": "uint256"
        }
      ],
      "name": "enrollClass",
      "outputs": [
        {
          "internalType": "bool",
          "name": "",
          "type": "bool"
        }
      ],
      "stateMutability": "nonpayable",
      "type": "function"
    },
    {
      "inputs": [
        {
          "internalType": "string",
          "name": "_className",
          "type": "string"
        },
        {
          "internalType": "uint256",
          "name": "_sessionId",
          "type": "uint256"
        }
      ],
      "name": "enrollClassSession",
      "outputs": [
        {
          "internalType": "bool",
          "name": "",
          "type": "bool"
        }
      ],
      "stateMutability": "nonpayable",
      "type": "function"
    },
    {
      "inputs": [],
      "name": "owner",
      "outputs": [
        {
          "internalType": "address",
          "name": "",
          "type": "address"
        }
      ],
      "stateMutability": "view",
      "type": "function"
    },
    {
      "inputs": [
        {
          "internalType": "uint256",
          "name": "",
          "type": "uint256"
        }
      ],
      "name": "takenClassIds",
      "outputs": [
        {
          "internalType": "bool",
          "name": "",
          "type": "bool"
        }
      ],
      "stateMutability": "view",
      "type": "function"
    },
    {
      "inputs": [
        {
          "internalType": "uint256",
          "name": "",
          "type": "uint256"
        }
      ],
      "name": "takenClassSession",
      "outputs": [
        {
          "internalType": "bool",
          "name": "",
          "type": "bool"
        }
      ],
      "stateMutability": "view",
      "type": "function"
    },
    {
      "inputs": [
        {
          "internalType": "uint256",
          "name": "",
          "type": "uint256"
        }
      ],
      "name": "validClassSession",
      "outputs": [
        {
          "internalType": "bool",
          "name": "",
          "type": "bool"
        }
      ],
      "stateMutability": "view",
      "type": "function"
    },
    {
      "inputs": [
        {
          "internalType": "uint256",
          "name": "_sessionId",
          "type": "uint256"
        }
      ],
      "name": "validSessionChecker",
      "outputs": [
        {
          "internalType": "bool",
          "name": "",
          "type": "bool"
        }
      ],
      "stateMutability": "view",
      "type": "function"
    }
  ],
  "bytecode": "0x608060405234801561001057600080fd5b50600080546001600160a01b0319163317905561073a806100326000396000f3fe608060405234801561001057600080fd5b50600436106100885760003560e01c806388fbe00c1161005b57806388fbe00c146101345780638da5cb5b14610147578063ab27015d14610172578063f3baa27e1461019557600080fd5b80632c5652861461008d5780633b1341cc146100cb57806351f37965146100fe5780637af0bc7e14610111575b600080fd5b6100b861009b366004610563565b805160208183018101805160018252928201919093012091525481565b6040519081526020015b60405180910390f35b6100ee6100d93660046105a0565b60026020526000908152604090205460ff1681565b60405190151581526020016100c2565b6100ee61010c3660046105b9565b6101b8565b6100ee61011f3660046105a0565b60009081526003602052604090205460ff1690565b6100ee6101423660046105b9565b61034c565b60005461015a906001600160a01b031681565b6040516001600160a01b0390911681526020016100c2565b6100ee6101803660046105a0565b60046020526000908152604090205460ff1681565b6100ee6101a33660046105a0565b60036020526000908152604090205460ff1681565b600080546001600160a01b031633146101ec5760405162461bcd60e51b81526004016101e3906105fe565b60405180910390fd5b6001836040516101fc9190610668565b90815260200160405180910390205460000361025a5760405162461bcd60e51b815260206004820181905260248201527f7468697320636c61737320686173206e6f74206265656e20656e726f6c6c656460448201526064016101e3565b60008281526004602052604090205460ff16156102ce5760405162461bcd60e51b815260206004820152602c60248201527f5468697320636c6173732073657373696f6e2069642068617320616c7265616460448201526b3c903132b2b7103a30b5b2b760a11b60648201526084016101e3565b60008281526003602052604090819020805460ff1916600190811790915590517fbc5b5177637aafb17c6971114c5cfb364c70908279146770a649c9e5e6ee763a91859161031d908390610668565b9081526040519081900360200181205461033b9291869042906106b0565b60405180910390a150600192915050565b600080546001600160a01b031633146103775760405162461bcd60e51b81526004016101e3906105fe565b60008281526002602052604090205460ff16156103e25760405162461bcd60e51b8152602060048201526024808201527f5468697320636c6173732069642068617320616c7265616479206265656e207460448201526330b5b2b760e11b60648201526084016101e3565b6001836040516103f29190610668565b9081526020016040518091039020546000146104505760405162461bcd60e51b815260206004820152601c60248201527f7468697320636c61737320616c72656164792068617320616e2069640000000060448201526064016101e3565b816001846040516104619190610668565b9081526040805191829003602090810183209390935560008581526002909352909120805460ff191660011790557ffe759797792897c8e0c3cf71c5b28fb63a9d17c316f717fad7ca5ef176ce142e9061033b908590859042906106df565b634e487b7160e01b600052604160045260246000fd5b600082601f8301126104e757600080fd5b813567ffffffffffffffff80821115610502576105026104c0565b604051601f8301601f19908116603f0116810190828211818310171561052a5761052a6104c0565b8160405283815286602085880101111561054357600080fd5b836020870160208301376000602085830101528094505050505092915050565b60006020828403121561057557600080fd5b813567ffffffffffffffff81111561058c57600080fd5b610598848285016104d6565b949350505050565b6000602082840312156105b257600080fd5b5035919050565b600080604083850312156105cc57600080fd5b823567ffffffffffffffff8111156105e357600080fd5b6105ef858286016104d6565b95602094909401359450505050565b60208082526026908201527f796f7520617265206e6f7420746865206f776e6572206f66207468697320636f6040820152651b9d1c9858dd60d21b606082015260800190565b60005b8381101561065f578181015183820152602001610647565b50506000910152565b6000825161067a818460208701610644565b9190910192915050565b6000815180845261069c816020860160208601610644565b601f01601f19169290920160200192915050565b6080815260006106c36080830187610684565b6020830195909552506040810192909252606090910152919050565b6060815260006106f26060830186610684565b6020830194909452506040015291905056fea2646970667358221220280a698efa625a512e538cb2cb9b13113aefb596d12eda274be57e22574fb4a264736f6c63430008130033",
  "linkReferences": {},
  "deployedLinkReferences": {}
}