{
  "_format": "hh-sol-artifact-1",
  "contractName": "WalletFactory",
  "sourceName": "contracts/WalletFactory.sol",
  "abi": [
    {
      "inputs": [],
      "stateMutability": "nonpayable",
      "type": "constructor"
    },
    {
      "anonymous": false,
      "inputs": [
        {
          "indexed": false,
          "internalType": "string",
          "name": "_authId",
          "type": "string"
        },
        {
          "indexed": false,
          "internalType": "uint256",
          "name": "time",
          "type": "uint256"
        },
        {
          "indexed": false,
          "internalType": "address",
          "name": "_address",
          "type": "address"
        },
        {
          "indexed": false,
          "internalType": "string",
          "name": "_userType",
          "type": "string"
        }
      ],
      "name": "WalletCreated",
      "type": "event"
    },
    {
      "inputs": [
        {
          "internalType": "uint256",
          "name": "",
          "type": "uint256"
        }
      ],
      "name": "Wallets",
      "outputs": [
        {
          "internalType": "address",
          "name": "",
          "type": "address"
        }
      ],
      "stateMutability": "view",
      "type": "function"
    },
    {
      "inputs": [
        {
          "internalType": "address",
          "name": "_owner",
          "type": "address"
        },
        {
          "internalType": "string",
          "name": "_authId",
          "type": "string"
        },
        {
          "internalType": "string",
          "name": "_userType",
          "type": "string"
        }
      ],
      "name": "createWallet",
      "outputs": [
        {
          "internalType": "bool",
          "name": "",
          "type": "bool"
        }
      ],
      "stateMutability": "nonpayable",
      "type": "function"
    },
    {
      "inputs": [],
      "name": "owner",
      "outputs": [
        {
          "internalType": "address",
          "name": "",
          "type": "address"
        }
      ],
      "stateMutability": "view",
      "type": "function"
    }
  ],
  "bytecode": "0x608060405234801561001057600080fd5b50600180546001600160a01b0319163317905561069c806100326000396000f3fe608060405234801561001057600080fd5b50600436106100415760003560e01c80631bc1306c146100465780638da5cb5b1461006e578063e895877514610099575b600080fd5b610059610054366004610270565b6100ac565b60405190151581526020015b60405180910390f35b600154610081906001600160a01b031681565b6040516001600160a01b039091168152602001610065565b6100816100a73660046102f2565b610196565b6001546000906001600160a01b031633146100c657600080fd5b6000846040516100d5906101c0565b6001600160a01b039091168152602001604051809103906000f080158015610101573d6000803e3d6000fd5b50600080546001810182559080527f290decd9548b62a8d60345a988386fc84ba6bc95484008f6362f93160ef3e5630180546001600160a01b0319166001600160a01b0383161790556040519091507fc2975058671cad3f07ca67874c1c46cbc235beb7230599f53afb24fff208e62990610183908690429085908890610351565b60405180910390a1506001949350505050565b600081815481106101a657600080fd5b6000918252602090912001546001600160a01b0316905081565b6102cf8061039883390190565b634e487b7160e01b600052604160045260246000fd5b600082601f8301126101f457600080fd5b813567ffffffffffffffff8082111561020f5761020f6101cd565b604051601f8301601f19908116603f01168101908282118183101715610237576102376101cd565b8160405283815286602085880101111561025057600080fd5b836020870160208301376000602085830101528094505050505092915050565b60008060006060848603121561028557600080fd5b83356001600160a01b038116811461029c57600080fd5b9250602084013567ffffffffffffffff808211156102b957600080fd5b6102c5878388016101e3565b935060408601359150808211156102db57600080fd5b506102e8868287016101e3565b9150509250925092565b60006020828403121561030457600080fd5b5035919050565b6000815180845260005b8181101561033157602081850181015186830182015201610315565b506000602082860101526020601f19601f83011685010191505092915050565b608081526000610364608083018761030b565b602083018690526001600160a01b0385166040840152828103606084015261038c818561030b565b97965050505050505056fe608060405234801561001057600080fd5b506040516102cf3803806102cf83398101604081905261002f9161006d565b600080546001600160a01b039092166001600160a01b031990921682178155908152600160208190526040909120805460ff1916909117905561009d565b60006020828403121561007f57600080fd5b81516001600160a01b038116811461009657600080fd5b9392505050565b610223806100ac6000396000f3fe608060405234801561001057600080fd5b50600436106100415760003560e01c80630e316ab7146100465780638da5cb5b1461006e578063eb12d61e14610099575b600080fd5b6100596100543660046101bd565b6100ac565b60405190151581526020015b60405180910390f35b600054610081906001600160a01b031681565b6040516001600160a01b039091168152602001610065565b6100596100a73660046101bd565b610136565b3360009081526001602052604081205460ff166101105760405162461bcd60e51b815260206004820152601e60248201527f596f7520617265206e6f7420616e20617070726f7665642063616c6c6572000060448201526064015b60405180910390fd5b506001600160a01b03166000908152600160208190526040909120805460ff1916905590565b3360009081526001602052604081205460ff166101955760405162461bcd60e51b815260206004820152601e60248201527f596f7520617265206e6f7420616e20617070726f7665642063616c6c657200006044820152606401610107565b506001600160a01b03166000908152600160208190526040909120805460ff19168217905590565b6000602082840312156101cf57600080fd5b81356001600160a01b03811681146101e657600080fd5b939250505056fea2646970667358221220e579091c011f52d50892e6c9b84d5465aa0783aed6133c744d2566c76a90c9dd64736f6c63430008130033a2646970667358221220acfef4e2ed46763f87ae87124fb00dc8b08958035a77e18b086225008f89804364736f6c63430008130033",
  "linkReferences": {},
  "deployedLinkReferences": {}
}