{
  "_format": "hh-sol-artifact-1",
  "contractName": "WalletFactory",
  "sourceName": "contracts/WalletFactory.sol",
  "abi": [
    {
      "inputs": [],
      "stateMutability": "nonpayable",
      "type": "constructor"
    },
    {
      "anonymous": false,
      "inputs": [
        {
          "indexed": false,
          "internalType": "string",
          "name": "_authId",
          "type": "string"
        },
        {
          "indexed": false,
          "internalType": "uint256",
          "name": "time",
          "type": "uint256"
        },
        {
          "indexed": false,
          "internalType": "address",
          "name": "_address",
          "type": "address"
        }
      ],
      "name": "WalletCreated",
      "type": "event"
    },
    {
      "inputs": [
        {
          "internalType": "uint256",
          "name": "",
          "type": "uint256"
        }
      ],
      "name": "Wallets",
      "outputs": [
        {
          "internalType": "address",
          "name": "",
          "type": "address"
        }
      ],
      "stateMutability": "view",
      "type": "function"
    },
    {
      "inputs": [
        {
          "internalType": "address",
          "name": "_owner",
          "type": "address"
        },
        {
          "internalType": "string",
          "name": "_authId",
          "type": "string"
        }
      ],
      "name": "createWallet",
      "outputs": [
        {
          "internalType": "bool",
          "name": "",
          "type": "bool"
        }
      ],
      "stateMutability": "nonpayable",
      "type": "function"
    },
    {
      "inputs": [],
      "name": "owner",
      "outputs": [
        {
          "internalType": "address",
          "name": "",
          "type": "address"
        }
      ],
      "stateMutability": "view",
      "type": "function"
    }
  ],
  "bytecode": "0x608060405234801561001057600080fd5b50600180546001600160a01b03191633179055610634806100326000396000f3fe608060405234801561001057600080fd5b50600436106100415760003560e01c80633f8f7e5a146100465780638da5cb5b1461006e578063e895877514610099575b600080fd5b6100596100543660046101e0565b6100ac565b60405190151581526020015b60405180910390f35b600154610081906001600160a01b031681565b6040516001600160a01b039091168152602001610065565b6100816100a73660046102b0565b610193565b6001546000906001600160a01b031633146100c657600080fd5b6000836040516100d5906101bd565b6001600160a01b039091168152602001604051809103906000f080158015610101573d6000803e3d6000fd5b50600080546001810182559080527f290decd9548b62a8d60345a988386fc84ba6bc95484008f6362f93160ef3e5630180546001600160a01b0319166001600160a01b0383161790556040519091507ff273b48a07e7c3e38096ef9485a0fce3092ef377da3fef5ed964ee45aa453a5b90610181908590429085906102c9565b60405180910390a15060019392505050565b600081815481106101a357600080fd5b6000918252602090912001546001600160a01b0316905081565b6102cf8061033083390190565b634e487b7160e01b600052604160045260246000fd5b600080604083850312156101f357600080fd5b82356001600160a01b038116811461020a57600080fd5b9150602083013567ffffffffffffffff8082111561022757600080fd5b818501915085601f83011261023b57600080fd5b81358181111561024d5761024d6101ca565b604051601f8201601f19908116603f01168101908382118183101715610275576102756101ca565b8160405282815288602084870101111561028e57600080fd5b8260208601602083013760006020848301015280955050505050509250929050565b6000602082840312156102c257600080fd5b5035919050565b606081526000845180606084015260005b818110156102f757602081880181015160808684010152016102da565b506000608082850181019190915260208401959095526001600160a01b0393909316604083015250601f909101601f1916010191905056fe608060405234801561001057600080fd5b506040516102cf3803806102cf83398101604081905261002f9161006d565b600080546001600160a01b039092166001600160a01b031990921682178155908152600160208190526040909120805460ff1916909117905561009d565b60006020828403121561007f57600080fd5b81516001600160a01b038116811461009657600080fd5b9392505050565b610223806100ac6000396000f3fe608060405234801561001057600080fd5b50600436106100415760003560e01c80630e316ab7146100465780638da5cb5b1461006e578063eb12d61e14610099575b600080fd5b6100596100543660046101bd565b6100ac565b60405190151581526020015b60405180910390f35b600054610081906001600160a01b031681565b6040516001600160a01b039091168152602001610065565b6100596100a73660046101bd565b610136565b3360009081526001602052604081205460ff166101105760405162461bcd60e51b815260206004820152601e60248201527f596f7520617265206e6f7420616e20617070726f7665642063616c6c6572000060448201526064015b60405180910390fd5b506001600160a01b03166000908152600160208190526040909120805460ff1916905590565b3360009081526001602052604081205460ff166101955760405162461bcd60e51b815260206004820152601e60248201527f596f7520617265206e6f7420616e20617070726f7665642063616c6c657200006044820152606401610107565b506001600160a01b03166000908152600160208190526040909120805460ff19168217905590565b6000602082840312156101cf57600080fd5b81356001600160a01b03811681146101e657600080fd5b939250505056fea2646970667358221220babcb98fdabad0e88a4eff2c3831317064a7dffc7ebd6c89aee5c251e9c8d71564736f6c63430008130033a264697066735822122009eb6b5d68f2ca1f97a3ee88e80ab08517183db518773e7ee390f02a3045ec7164736f6c63430008130033",
  "linkReferences": {},
  "deployedLinkReferences": {}
}