{
  "_format": "hh-sol-artifact-1",
  "contractName": "Wallet",
  "sourceName": "contracts/Wallet.sol",
  "abi": [
    {
      "inputs": [
        {
          "internalType": "address",
          "name": "_owner",
          "type": "address"
        },
        {
          "internalType": "address",
          "name": "_attendees",
          "type": "address"
        },
        {
          "internalType": "address",
          "name": "_token",
          "type": "address"
        },
        {
          "internalType": "address",
          "name": "_businesses",
          "type": "address"
        },
        {
          "internalType": "string",
          "name": "_firstName",
          "type": "string"
        },
        {
          "internalType": "string",
          "name": "_lastName",
          "type": "string"
        },
        {
          "internalType": "string",
          "name": "_organization",
          "type": "string"
        }
      ],
      "stateMutability": "nonpayable",
      "type": "constructor"
    },
    {
      "inputs": [
        {
          "internalType": "address",
          "name": "_address",
          "type": "address"
        }
      ],
      "name": "addSigner",
      "outputs": [
        {
          "internalType": "bool",
          "name": "",
          "type": "bool"
        }
      ],
      "stateMutability": "nonpayable",
      "type": "function"
    },
    {
      "inputs": [
        {
          "internalType": "uint256",
          "name": "_couponID",
          "type": "uint256"
        }
      ],
      "name": "buyCoupon",
      "outputs": [
        {
          "internalType": "bool",
          "name": "",
          "type": "bool"
        }
      ],
      "stateMutability": "nonpayable",
      "type": "function"
    },
    {
      "inputs": [],
      "name": "owner",
      "outputs": [
        {
          "internalType": "address",
          "name": "",
          "type": "address"
        }
      ],
      "stateMutability": "view",
      "type": "function"
    },
    {
      "inputs": [
        {
          "internalType": "uint256",
          "name": "_couponID",
          "type": "uint256"
        }
      ],
      "name": "redeemCoupon",
      "outputs": [
        {
          "internalType": "bool",
          "name": "",
          "type": "bool"
        }
      ],
      "stateMutability": "nonpayable",
      "type": "function"
    },
    {
      "inputs": [
        {
          "internalType": "address",
          "name": "_address",
          "type": "address"
        }
      ],
      "name": "removeSigner",
      "outputs": [
        {
          "internalType": "bool",
          "name": "",
          "type": "bool"
        }
      ],
      "stateMutability": "nonpayable",
      "type": "function"
    }
  ],
  "bytecode": "0x60806040523480156200001157600080fd5b506040516200094e3803806200094e8339810160408190526200003491620001fc565b600180546001600160a01b038089166001600160a01b03199283161783556002805489831690841617905560038054888316908416179055600080548b831693168317815591825260046020819052604092839020805460ff1916851790559254915163c588277d60e01b815291169163c588277d91620000be9133918891889188910162000307565b6020604051808303816000875af1158015620000de573d6000803e3d6000fd5b505050506040513d601f19601f8201168201806040525081019062000104919062000362565b50505050505050506200038d565b80516001600160a01b03811681146200012a57600080fd5b919050565b634e487b7160e01b600052604160045260246000fd5b60005b838110156200016257818101518382015260200162000148565b50506000910152565b600082601f8301126200017d57600080fd5b81516001600160401b03808211156200019a576200019a6200012f565b604051601f8301601f19908116603f01168101908282118183101715620001c557620001c56200012f565b81604052838152866020858801011115620001df57600080fd5b620001f284602083016020890162000145565b9695505050505050565b600080600080600080600060e0888a0312156200021857600080fd5b620002238862000112565b9650620002336020890162000112565b9550620002436040890162000112565b9450620002536060890162000112565b60808901519094506001600160401b03808211156200027157600080fd5b6200027f8b838c016200016b565b945060a08a01519150808211156200029657600080fd5b620002a48b838c016200016b565b935060c08a0151915080821115620002bb57600080fd5b50620002ca8a828b016200016b565b91505092959891949750929550565b60008151808452620002f381602086016020860162000145565b601f01601f19169290920160200192915050565b6001600160a01b03851681526080602082018190526000906200032d90830186620002d9565b8281036040840152620003418186620002d9565b90508281036060840152620003578185620002d9565b979650505050505050565b6000602082840312156200037557600080fd5b815180151581146200038657600080fd5b9392505050565b6105b1806200039d6000396000f3fe608060405234801561001057600080fd5b50600436106100575760003560e01c80630e316ab71461005c5780634ffab34b1461008457806386d3ebc7146100975780638da5cb5b146100aa578063eb12d61e146100d5575b600080fd5b61006f61006a3660046103dd565b6100e8565b60405190151581526020015b60405180910390f35b61006f61009236600461040d565b610145565b61006f6100a536600461040d565b6101ec565b6000546100bd906001600160a01b031681565b6040516001600160a01b03909116815260200161007b565b61006f6100e33660046103dd565b610385565b3360009081526004602052604081205460ff166101205760405162461bcd60e51b815260040161011790610426565b60405180910390fd5b506001600160a01b03166000908152600460205260409020805460ff19169055600190565b3360009081526004602052604081205460ff166101745760405162461bcd60e51b815260040161011790610426565b600354604051634ffab34b60e01b8152600481018490526001600160a01b0390911690634ffab34b906024016020604051808303816000875af11580156101bf573d6000803e3d6000fd5b505050506040513d601f19601f820116820180604052508101906101e3919061045d565b50600192915050565b3360009081526004602052604081205460ff1661021b5760405162461bcd60e51b815260040161011790610426565b600354604051632e9ee91960e11b8152600481018490526000916001600160a01b031690635d3dd23290602401600060405180830381865afa158015610265573d6000803e3d6000fd5b505050506040513d6000823e601f3d908101601f1916820160405261028d9190810190610495565b505060025460035460405163095ea7b360e01b81526001600160a01b0391821660048201526024810184905292945016915063095ea7b3906044016020604051808303816000875af11580156102e7573d6000803e3d6000fd5b505050506040513d601f19601f8201168201806040525081019061030b919061045d565b506003546040516386d3ebc760e01b8152600481018590526001600160a01b03909116906386d3ebc7906024016020604051808303816000875af1158015610357573d6000803e3d6000fd5b505050506040513d601f19601f8201168201806040525081019061037b919061045d565b5060019392505050565b3360009081526004602052604081205460ff166103b45760405162461bcd60e51b815260040161011790610426565b506001600160a01b03166000908152600460205260409020805460ff1916600190811790915590565b6000602082840312156103ef57600080fd5b81356001600160a01b038116811461040657600080fd5b9392505050565b60006020828403121561041f57600080fd5b5035919050565b6020808252601e908201527f596f7520617265206e6f7420616e20617070726f7665642063616c6c65720000604082015260600190565b60006020828403121561046f57600080fd5b8151801515811461040657600080fd5b634e487b7160e01b600052604160045260246000fd5b600080600080608085870312156104ab57600080fd5b84519350602080860151935060408601519250606086015167ffffffffffffffff808211156104d957600080fd5b818801915088601f8301126104ed57600080fd5b8151818111156104ff576104ff61047f565b604051601f8201601f19908116603f011681019083821181831017156105275761052761047f565b816040528281528b8684870101111561053f57600080fd5b600093505b828410156105615784840186015181850187015292850192610544565b60008684830101528096505050505050509295919450925056fea26469706673582212201f83692e43372a8fbc6f34ae89a64fe7945ce43f4ee1568a95ef3ea4bcb084f664736f6c63430008130033",
  "linkReferences": {},
  "deployedLinkReferences": {}
}