{
  "_format": "hh-sol-artifact-1",
  "contractName": "Attendees",
  "sourceName": "contracts/Attendees.sol",
  "abi": [
    {
      "inputs": [],
      "stateMutability": "nonpayable",
      "type": "constructor"
    },
    {
      "anonymous": false,
      "inputs": [
        {
          "indexed": true,
          "internalType": "address",
          "name": "attendeeAddress",
          "type": "address"
        },
        {
          "indexed": false,
          "internalType": "string",
          "name": "firstName",
          "type": "string"
        },
        {
          "indexed": false,
          "internalType": "string",
          "name": "lastName",
          "type": "string"
        },
        {
          "indexed": false,
          "internalType": "uint256",
          "name": "organizationID",
          "type": "uint256"
        }
      ],
      "name": "AttendeeCreated",
      "type": "event"
    },
    {
      "anonymous": false,
      "inputs": [
        {
          "indexed": false,
          "internalType": "string",
          "name": "organizationName",
          "type": "string"
        },
        {
          "indexed": false,
          "internalType": "uint256",
          "name": "organizationID",
          "type": "uint256"
        }
      ],
      "name": "OrganizationIDSet",
      "type": "event"
    },
    {
      "inputs": [
        {
          "internalType": "address",
          "name": "",
          "type": "address"
        }
      ],
      "name": "addressToAttendee",
      "outputs": [
        {
          "internalType": "string",
          "name": "firstName",
          "type": "string"
        },
        {
          "internalType": "string",
          "name": "lastName",
          "type": "string"
        },
        {
          "internalType": "uint256",
          "name": "organizationID",
          "type": "uint256"
        }
      ],
      "stateMutability": "view",
      "type": "function"
    },
    {
      "inputs": [
        {
          "internalType": "address",
          "name": "_account",
          "type": "address"
        },
        {
          "internalType": "string",
          "name": "_firstName",
          "type": "string"
        },
        {
          "internalType": "string",
          "name": "_lastName",
          "type": "string"
        },
        {
          "internalType": "string",
          "name": "_organization",
          "type": "string"
        }
      ],
      "name": "createAttendee",
      "outputs": [
        {
          "internalType": "bool",
          "name": "",
          "type": "bool"
        }
      ],
      "stateMutability": "nonpayable",
      "type": "function"
    },
    {
      "inputs": [
        {
          "internalType": "address",
          "name": "_account",
          "type": "address"
        }
      ],
      "name": "getAddressToAttendee",
      "outputs": [
        {
          "internalType": "string",
          "name": "firstName",
          "type": "string"
        },
        {
          "internalType": "string",
          "name": "lastName",
          "type": "string"
        },
        {
          "internalType": "uint256",
          "name": "organizationID",
          "type": "uint256"
        }
      ],
      "stateMutability": "view",
      "type": "function"
    },
    {
      "inputs": [
        {
          "internalType": "uint256",
          "name": "",
          "type": "uint256"
        }
      ],
      "name": "idtoOrganization",
      "outputs": [
        {
          "internalType": "string",
          "name": "",
          "type": "string"
        }
      ],
      "stateMutability": "view",
      "type": "function"
    },
    {
      "inputs": [
        {
          "internalType": "string",
          "name": "",
          "type": "string"
        }
      ],
      "name": "organizationToID",
      "outputs": [
        {
          "internalType": "uint256",
          "name": "",
          "type": "uint256"
        }
      ],
      "stateMutability": "view",
      "type": "function"
    },
    {
      "inputs": [
        {
          "internalType": "string",
          "name": "_string",
          "type": "string"
        }
      ],
      "name": "setOrganizationID",
      "outputs": [
        {
          "internalType": "bool",
          "name": "",
          "type": "bool"
        }
      ],
      "stateMutability": "nonpayable",
      "type": "function"
    }
  ],
  "bytecode": "0x60806040526001805534801561001457600080fd5b50600080546001600160a01b03191633179055610d2f806100366000396000f3fe608060405234801561001057600080fd5b50600436106100625760003560e01c80633596ae121461006757806343938cbe146100a55780636a2bb698146100c7578063977a7978146100e7578063c588277d146100fa578063fd708fac1461011d575b600080fd5b61009261007536600461090f565b805160208183018101805160058252928201919093012091525481565b6040519081526020015b60405180910390f35b6100b86100b3366004610968565b610130565b60405161009c939291906109da565b6100da6100d5366004610a10565b610262565b60405161009c9190610a29565b6100b86100f5366004610968565b6102fc565b61010d610108366004610a3c565b61047b565b604051901515815260200161009c565b61010d61012b36600461090f565b610600565b60036020526000908152604090208054819061014b90610ad5565b80601f016020809104026020016040519081016040528092919081815260200182805461017790610ad5565b80156101c45780601f10610199576101008083540402835291602001916101c4565b820191906000526020600020905b8154815290600101906020018083116101a757829003601f168201915b5050505050908060010180546101d990610ad5565b80601f016020809104026020016040519081016040528092919081815260200182805461020590610ad5565b80156102525780601f1061022757610100808354040283529160200191610252565b820191906000526020600020905b81548152906001019060200180831161023557829003601f168201915b5050505050908060020154905083565b6004602052600090815260409020805461027b90610ad5565b80601f01602080910402602001604051908101604052809291908181526020018280546102a790610ad5565b80156102f45780601f106102c9576101008083540402835291602001916102f4565b820191906000526020600020905b8154815290600101906020018083116102d757829003601f168201915b505050505081565b60608060008060036000866001600160a01b03166001600160a01b0316815260200190815260200160002060405180606001604052908160008201805461034290610ad5565b80601f016020809104026020016040519081016040528092919081815260200182805461036e90610ad5565b80156103bb5780601f10610390576101008083540402835291602001916103bb565b820191906000526020600020905b81548152906001019060200180831161039e57829003601f168201915b505050505081526020016001820180546103d490610ad5565b80601f016020809104026020016040519081016040528092919081815260200182805461040090610ad5565b801561044d5780601f106104225761010080835404028352916020019161044d565b820191906000526020600020905b81548152906001019060200180831161043057829003601f168201915b5050509183525050600291909101546020918201528151908201516040909201519097919650945092505050565b600080546001600160a01b031633146104f65760405162461bcd60e51b815260206004820152603260248201527f596f7520646f206e6f742068617665207468652072657175697265642070726960448201527176696c6567657320746f20646f207468697360701b60648201526084015b60405180910390fd5b6005826040516105069190610b0f565b9081526020016040518091039020546000036105275761052582610600565b505b60006005836040516105399190610b0f565b908152604080519182900360209081018320546060840183528884528382018890528383018190526001600160a01b038a166000908152600390925291902082519193508291819061058b9082610b7a565b50602082015160018201906105a09082610b7a565b5060408201518160020155905050866001600160a01b03167fdd3767a3be2e324d10cd1dd0c45a357f5d45bf7b98bfa6fa6c535c36c7a1dd4c8787856040516105eb939291906109da565b60405180910390a25060019695505050505050565b600080546001600160a01b031633148061061957503330145b61067c5760405162461bcd60e51b815260206004820152602e60248201527f596f7520617265206e6f7420616c6c6f77656420746f20736574206f7267616e60448201526d697a6174696f6e2076616c75657360901b60648201526084016104ed565b60058260405161068c9190610b0f565b9081526020016040518091039020546000146106f65760405162461bcd60e51b815260206004820152602360248201527f54686973204f7267616e697a6174696f6e20616c72656164792068617320616e60448201526208125160ea1b60648201526084016104ed565b604080516000808252602080830180855283519020600154835260049091529083902090926107259201610c3a565b60405160208183030381529060405280519060200120146107965760405162461bcd60e51b815260206004820152602560248201527f54686973204f7267616e697a6174696f6e20494420697320616c7265616479206044820152643a30b5b2b760d91b60648201526084016104ed565b6001546005836040516107a99190610b0f565b90815260408051602092819003830190209290925560015460009081526004909152206107d68382610b7a565b50600180549060006107e783610cb0565b9091555050600280546001810182556000919091527f405787fa12a823e0f2b7631cc41b3ba8828b3321ca811111fa75cd3aa3bb5ace016108288382610b7a565b507f437aede41d7295f50c2270f45dd8ae783adf718892239730f3e6e15d7f7f1c438260015460405161085c929190610cd7565b60405180910390a1506001919050565b634e487b7160e01b600052604160045260246000fd5b600082601f83011261089357600080fd5b813567ffffffffffffffff808211156108ae576108ae61086c565b604051601f8301601f19908116603f011681019082821181831017156108d6576108d661086c565b816040528381528660208588010111156108ef57600080fd5b836020870160208301376000602085830101528094505050505092915050565b60006020828403121561092157600080fd5b813567ffffffffffffffff81111561093857600080fd5b61094484828501610882565b949350505050565b80356001600160a01b038116811461096357600080fd5b919050565b60006020828403121561097a57600080fd5b6109838261094c565b9392505050565b60005b838110156109a557818101518382015260200161098d565b50506000910152565b600081518084526109c681602086016020860161098a565b601f01601f19169290920160200192915050565b6060815260006109ed60608301866109ae565b82810360208401526109ff81866109ae565b915050826040830152949350505050565b600060208284031215610a2257600080fd5b5035919050565b60208152600061098360208301846109ae565b60008060008060808587031215610a5257600080fd5b610a5b8561094c565b9350602085013567ffffffffffffffff80821115610a7857600080fd5b610a8488838901610882565b94506040870135915080821115610a9a57600080fd5b610aa688838901610882565b93506060870135915080821115610abc57600080fd5b50610ac987828801610882565b91505092959194509250565b600181811c90821680610ae957607f821691505b602082108103610b0957634e487b7160e01b600052602260045260246000fd5b50919050565b60008251610b2181846020870161098a565b9190910192915050565b601f821115610b7557600081815260208120601f850160051c81016020861015610b525750805b601f850160051c820191505b81811015610b7157828155600101610b5e565b5050505b505050565b815167ffffffffffffffff811115610b9457610b9461086c565b610ba881610ba28454610ad5565b84610b2b565b602080601f831160018114610bdd5760008415610bc55750858301515b600019600386901b1c1916600185901b178555610b71565b600085815260208120601f198616915b82811015610c0c57888601518255948401946001909101908401610bed565b5085821015610c2a5787850151600019600388901b60f8161c191681555b5050505050600190811b01905550565b6000808354610c4881610ad5565b60018281168015610c605760018114610c7557610ca4565b60ff1984168752821515830287019450610ca4565b8760005260208060002060005b85811015610c9b5781548a820152908401908201610c82565b50505082870194505b50929695505050505050565b600060018201610cd057634e487b7160e01b600052601160045260246000fd5b5060010190565b604081526000610cea60408301856109ae565b9050826020830152939250505056fea26469706673582212200f4473651060679c5de30703063631faf45cd50d761c41b663defee3e2cf810764736f6c63430008130033",
  "linkReferences": {},
  "deployedLinkReferences": {}
}