{
  "_format": "hh-sol-artifact-1",
  "contractName": "Attendees",
  "sourceName": "contracts/Attendees.sol",
  "abi": [
    {
      "inputs": [],
      "stateMutability": "nonpayable",
      "type": "constructor"
    },
    {
      "anonymous": false,
      "inputs": [
        {
          "indexed": true,
          "internalType": "address",
          "name": "attendeeAddress",
          "type": "address"
        },
        {
          "indexed": false,
          "internalType": "uint256",
          "name": "organizationID",
          "type": "uint256"
        },
        {
          "indexed": false,
          "internalType": "uint256",
          "name": "time",
          "type": "uint256"
        }
      ],
      "name": "AttendeeCreated",
      "type": "event"
    },
    {
      "anonymous": false,
      "inputs": [
        {
          "indexed": false,
          "internalType": "string",
          "name": "organizationName",
          "type": "string"
        },
        {
          "indexed": false,
          "internalType": "uint256",
          "name": "organizationID",
          "type": "uint256"
        },
        {
          "indexed": false,
          "internalType": "uint256",
          "name": "time",
          "type": "uint256"
        }
      ],
      "name": "OrganizationIDSet",
      "type": "event"
    },
    {
      "inputs": [
        {
          "internalType": "address",
          "name": "",
          "type": "address"
        }
      ],
      "name": "addressToAttendee",
      "outputs": [
        {
          "internalType": "uint256",
          "name": "organizationID",
          "type": "uint256"
        }
      ],
      "stateMutability": "view",
      "type": "function"
    },
    {
      "inputs": [
        {
          "internalType": "address",
          "name": "_account",
          "type": "address"
        },
        {
          "internalType": "string",
          "name": "_organization",
          "type": "string"
        }
      ],
      "name": "createAttendee",
      "outputs": [
        {
          "internalType": "bool",
          "name": "",
          "type": "bool"
        }
      ],
      "stateMutability": "nonpayable",
      "type": "function"
    },
    {
      "inputs": [
        {
          "internalType": "address",
          "name": "_account",
          "type": "address"
        }
      ],
      "name": "getAddressToAttendee",
      "outputs": [
        {
          "internalType": "uint256",
          "name": "organizationID",
          "type": "uint256"
        }
      ],
      "stateMutability": "view",
      "type": "function"
    },
    {
      "inputs": [
        {
          "internalType": "string",
          "name": "_name",
          "type": "string"
        }
      ],
      "name": "getOrganizationToId",
      "outputs": [
        {
          "internalType": "uint256",
          "name": "",
          "type": "uint256"
        }
      ],
      "stateMutability": "view",
      "type": "function"
    },
    {
      "inputs": [
        {
          "internalType": "uint256",
          "name": "",
          "type": "uint256"
        }
      ],
      "name": "idtoOrganization",
      "outputs": [
        {
          "internalType": "string",
          "name": "",
          "type": "string"
        }
      ],
      "stateMutability": "view",
      "type": "function"
    },
    {
      "inputs": [
        {
          "internalType": "string",
          "name": "",
          "type": "string"
        }
      ],
      "name": "organizationToID",
      "outputs": [
        {
          "internalType": "uint256",
          "name": "",
          "type": "uint256"
        }
      ],
      "stateMutability": "view",
      "type": "function"
    },
    {
      "inputs": [
        {
          "internalType": "string",
          "name": "_string",
          "type": "string"
        }
      ],
      "name": "setOrganizationID",
      "outputs": [
        {
          "internalType": "bool",
          "name": "",
          "type": "bool"
        }
      ],
      "stateMutability": "nonpayable",
      "type": "function"
    }
  ],
  "bytecode": "0x60806040526001805534801561001457600080fd5b50600080546001600160a01b03191633179055610944806100366000396000f3fe608060405234801561001057600080fd5b506004361061007d5760003560e01c80636a2bb6981161005b5780636a2bb69814610103578063977a797814610123578063c0c59ab51461015d578063fd708fac1461017057600080fd5b80630f57f087146100825780633596ae12146100aa57806343938cbe146100e3575b600080fd5b6100956100903660046105be565b610183565b60405190151581526020015b60405180910390f35b6100d56100b836600461060c565b805160208183018101805160058252928201919093012091525481565b6040519081526020016100a1565b6100d56100f1366004610649565b60036020526000908152604090205481565b61011661011136600461066b565b610244565b6040516100a191906106d4565b6100d5610131366004610649565b6001600160a01b0316600090815260036020908152604091829020825191820190925290549081905290565b6100d561016b36600461060c565b6102de565b61009561017e36600461060c565b610306565b600060058260405161019591906106e7565b9081526020016040518091039020546000036101b6576101b482610306565b505b60006005836040516101c891906106e7565b9081526040805191829003602090810183205481840183528084526001600160a01b0388166000818152600384528490208551905583518281524293810193909352909450917f13ab098b2d5f53dd0d639bb2f34c419072e469f1eaa6469058651522d2c9a063910160405180910390a2506001949350505050565b6004602052600090815260409020805461025d90610703565b80601f016020809104026020016040519081016040528092919081815260200182805461028990610703565b80156102d65780601f106102ab576101008083540402835291602001916102d6565b820191906000526020600020905b8154815290600101906020018083116102b957829003601f168201915b505050505081565b60006005826040516102f091906106e7565b9081526020016040518091039020549050919050565b600060058260405161031891906106e7565b9081526020016040518091039020546000146103875760405162461bcd60e51b815260206004820152602360248201527f54686973204f7267616e697a6174696f6e20616c72656164792068617320616e60448201526208125160ea1b60648201526084015b60405180910390fd5b604080516000808252602080830180855283519020600154835260049091529083902090926103b6920161073d565b60405160208183030381529060405280519060200120146104275760405162461bcd60e51b815260206004820152602560248201527f54686973204f7267616e697a6174696f6e20494420697320616c7265616479206044820152643a30b5b2b760d91b606482015260840161037e565b60015460058360405161043a91906106e7565b90815260408051602092819003830190209290925560015460009081526004909152206104678382610802565b5060018054906000610478836108c2565b9091555050600280546001810182556000919091527f405787fa12a823e0f2b7631cc41b3ba8828b3321ca811111fa75cd3aa3bb5ace016104b98382610802565b507fe1bb2e7370db3cf867149a6f31e9128a6468cc98c8fa346cbe3fc34c03153be182600154426040516104ef939291906108e9565b60405180910390a1506001919050565b80356001600160a01b038116811461051657600080fd5b919050565b634e487b7160e01b600052604160045260246000fd5b600082601f83011261054257600080fd5b813567ffffffffffffffff8082111561055d5761055d61051b565b604051601f8301601f19908116603f011681019082821181831017156105855761058561051b565b8160405283815286602085880101111561059e57600080fd5b836020870160208301376000602085830101528094505050505092915050565b600080604083850312156105d157600080fd5b6105da836104ff565b9150602083013567ffffffffffffffff8111156105f657600080fd5b61060285828601610531565b9150509250929050565b60006020828403121561061e57600080fd5b813567ffffffffffffffff81111561063557600080fd5b61064184828501610531565b949350505050565b60006020828403121561065b57600080fd5b610664826104ff565b9392505050565b60006020828403121561067d57600080fd5b5035919050565b60005b8381101561069f578181015183820152602001610687565b50506000910152565b600081518084526106c0816020860160208601610684565b601f01601f19169290920160200192915050565b60208152600061066460208301846106a8565b600082516106f9818460208701610684565b9190910192915050565b600181811c9082168061071757607f821691505b60208210810361073757634e487b7160e01b600052602260045260246000fd5b50919050565b600080835461074b81610703565b600182811680156107635760018114610778576107a7565b60ff19841687528215158302870194506107a7565b8760005260208060002060005b8581101561079e5781548a820152908401908201610785565b50505082870194505b50929695505050505050565b601f8211156107fd57600081815260208120601f850160051c810160208610156107da5750805b601f850160051c820191505b818110156107f9578281556001016107e6565b5050505b505050565b815167ffffffffffffffff81111561081c5761081c61051b565b6108308161082a8454610703565b846107b3565b602080601f831160018114610865576000841561084d5750858301515b600019600386901b1c1916600185901b1785556107f9565b600085815260208120601f198616915b8281101561089457888601518255948401946001909101908401610875565b50858210156108b25787850151600019600388901b60f8161c191681555b5050505050600190811b01905550565b6000600182016108e257634e487b7160e01b600052601160045260246000fd5b5060010190565b6060815260006108fc60608301866106a8565b6020830194909452506040015291905056fea2646970667358221220653e70df5d0ef5d15eef5846596f509edae1034eea8e59e8915053c83cf94bc264736f6c63430008130033",
  "linkReferences": {},
  "deployedLinkReferences": {}
}