{
  "_format": "hh-sol-artifact-1",
  "contractName": "Businesses",
  "sourceName": "contracts/Businesses.sol",
  "abi": [
    {
      "inputs": [
        {
          "internalType": "address",
          "name": "_addressToken",
          "type": "address"
        },
        {
          "internalType": "address",
          "name": "_addressAttendee",
          "type": "address"
        }
      ],
      "stateMutability": "nonpayable",
      "type": "constructor"
    },
    {
      "anonymous": false,
      "inputs": [
        {
          "indexed": false,
          "internalType": "string",
          "name": "businessName",
          "type": "string"
        },
        {
          "indexed": false,
          "internalType": "uint256",
          "name": "businessID",
          "type": "uint256"
        },
        {
          "indexed": false,
          "internalType": "uint256",
          "name": "time",
          "type": "uint256"
        }
      ],
      "name": "BusinessEnrolled",
      "type": "event"
    },
    {
      "anonymous": false,
      "inputs": [
        {
          "indexed": false,
          "internalType": "uint256",
          "name": "couponID",
          "type": "uint256"
        },
        {
          "indexed": false,
          "internalType": "uint256",
          "name": "supply",
          "type": "uint256"
        },
        {
          "indexed": false,
          "internalType": "string",
          "name": "description",
          "type": "string"
        },
        {
          "indexed": false,
          "internalType": "uint256",
          "name": "businessID",
          "type": "uint256"
        },
        {
          "indexed": false,
          "internalType": "string",
          "name": "businessName",
          "type": "string"
        },
        {
          "indexed": false,
          "internalType": "uint256",
          "name": "time",
          "type": "uint256"
        }
      ],
      "name": "CouponCreated",
      "type": "event"
    },
    {
      "anonymous": false,
      "inputs": [
        {
          "indexed": false,
          "internalType": "uint256",
          "name": "couponID",
          "type": "uint256"
        },
        {
          "indexed": false,
          "internalType": "address",
          "name": "buyer",
          "type": "address"
        },
        {
          "indexed": false,
          "internalType": "uint256",
          "name": "time",
          "type": "uint256"
        }
      ],
      "name": "CouponPurchased",
      "type": "event"
    },
    {
      "anonymous": false,
      "inputs": [
        {
          "indexed": false,
          "internalType": "uint256",
          "name": "couponID",
          "type": "uint256"
        },
        {
          "indexed": false,
          "internalType": "address",
          "name": "redeemer",
          "type": "address"
        },
        {
          "indexed": false,
          "internalType": "uint256",
          "name": "time",
          "type": "uint256"
        }
      ],
      "name": "CouponRedeemed",
      "type": "event"
    },
    {
      "inputs": [
        {
          "internalType": "uint256",
          "name": "",
          "type": "uint256"
        }
      ],
      "name": "BusinessesList",
      "outputs": [
        {
          "internalType": "string",
          "name": "",
          "type": "string"
        }
      ],
      "stateMutability": "view",
      "type": "function"
    },
    {
      "inputs": [
        {
          "internalType": "uint256",
          "name": "_couponID",
          "type": "uint256"
        }
      ],
      "name": "buyCoupon",
      "outputs": [
        {
          "internalType": "bool",
          "name": "",
          "type": "bool"
        }
      ],
      "stateMutability": "nonpayable",
      "type": "function"
    },
    {
      "inputs": [
        {
          "internalType": "address",
          "name": "_newaddress",
          "type": "address"
        }
      ],
      "name": "changeAttendeeContract",
      "outputs": [
        {
          "internalType": "bool",
          "name": "",
          "type": "bool"
        }
      ],
      "stateMutability": "nonpayable",
      "type": "function"
    },
    {
      "inputs": [
        {
          "internalType": "address",
          "name": "_newaddress",
          "type": "address"
        }
      ],
      "name": "changeTokenContract",
      "outputs": [
        {
          "internalType": "bool",
          "name": "",
          "type": "bool"
        }
      ],
      "stateMutability": "nonpayable",
      "type": "function"
    },
    {
      "inputs": [
        {
          "internalType": "string",
          "name": "_businessName",
          "type": "string"
        },
        {
          "internalType": "uint256",
          "name": "_price",
          "type": "uint256"
        },
        {
          "internalType": "uint256",
          "name": "_supply",
          "type": "uint256"
        },
        {
          "internalType": "string",
          "name": "_description",
          "type": "string"
        },
        {
          "internalType": "string[]",
          "name": "_banList",
          "type": "string[]"
        }
      ],
      "name": "createCoupon",
      "outputs": [
        {
          "internalType": "uint256",
          "name": "",
          "type": "uint256"
        }
      ],
      "stateMutability": "nonpayable",
      "type": "function"
    },
    {
      "inputs": [
        {
          "internalType": "string",
          "name": "_businessName",
          "type": "string"
        }
      ],
      "name": "enrollBusiness",
      "outputs": [
        {
          "internalType": "uint256",
          "name": "",
          "type": "uint256"
        }
      ],
      "stateMutability": "nonpayable",
      "type": "function"
    },
    {
      "inputs": [
        {
          "internalType": "address",
          "name": "_address",
          "type": "address"
        }
      ],
      "name": "getAttendeeToCouponIDs",
      "outputs": [
        {
          "internalType": "uint256[]",
          "name": "",
          "type": "uint256[]"
        }
      ],
      "stateMutability": "view",
      "type": "function"
    },
    {
      "inputs": [
        {
          "internalType": "string",
          "name": "_businessname",
          "type": "string"
        }
      ],
      "name": "getBusinessCoupons",
      "outputs": [
        {
          "internalType": "uint256[]",
          "name": "",
          "type": "uint256[]"
        }
      ],
      "stateMutability": "view",
      "type": "function"
    },
    {
      "inputs": [
        {
          "internalType": "uint256",
          "name": "_businessID",
          "type": "uint256"
        }
      ],
      "name": "getBusinessToCouponIDs",
      "outputs": [
        {
          "internalType": "uint256[]",
          "name": "",
          "type": "uint256[]"
        }
      ],
      "stateMutability": "view",
      "type": "function"
    },
    {
      "inputs": [
        {
          "internalType": "string",
          "name": "_businessName",
          "type": "string"
        }
      ],
      "name": "getBusinessToID",
      "outputs": [
        {
          "internalType": "uint256",
          "name": "",
          "type": "uint256"
        }
      ],
      "stateMutability": "view",
      "type": "function"
    },
    {
      "inputs": [],
      "name": "getBusinessesList",
      "outputs": [
        {
          "internalType": "string[]",
          "name": "",
          "type": "string[]"
        }
      ],
      "stateMutability": "view",
      "type": "function"
    },
    {
      "inputs": [
        {
          "internalType": "uint256",
          "name": "_couponID",
          "type": "uint256"
        }
      ],
      "name": "getCouponDetails",
      "outputs": [
        {
          "internalType": "uint256",
          "name": "",
          "type": "uint256"
        },
        {
          "internalType": "uint256",
          "name": "",
          "type": "uint256"
        },
        {
          "internalType": "uint256",
          "name": "",
          "type": "uint256"
        }
      ],
      "stateMutability": "view",
      "type": "function"
    },
    {
      "inputs": [
        {
          "internalType": "uint256",
          "name": "_couponID",
          "type": "uint256"
        }
      ],
      "name": "getCouponIDToCoupon",
      "outputs": [
        {
          "internalType": "uint256",
          "name": "",
          "type": "uint256"
        },
        {
          "internalType": "uint256",
          "name": "",
          "type": "uint256"
        },
        {
          "internalType": "uint256",
          "name": "",
          "type": "uint256"
        }
      ],
      "stateMutability": "view",
      "type": "function"
    },
    {
      "inputs": [],
      "name": "idCounter",
      "outputs": [
        {
          "internalType": "uint256",
          "name": "",
          "type": "uint256"
        }
      ],
      "stateMutability": "view",
      "type": "function"
    },
    {
      "inputs": [],
      "name": "owner",
      "outputs": [
        {
          "internalType": "address",
          "name": "",
          "type": "address"
        }
      ],
      "stateMutability": "view",
      "type": "function"
    },
    {
      "inputs": [
        {
          "internalType": "uint256",
          "name": "_couponID",
          "type": "uint256"
        }
      ],
      "name": "redeemCoupon",
      "outputs": [
        {
          "internalType": "bool",
          "name": "",
          "type": "bool"
        }
      ],
      "stateMutability": "nonpayable",
      "type": "function"
    }
  ],
  "bytecode": "0x60806040526001600455600160055534801561001a57600080fd5b5060405161158b38038061158b83398101604081905261003991610091565b600080546001600160a01b03199081163317909155600180546001600160a01b03948516908316179055600280549290931691161790556100c4565b80516001600160a01b038116811461008c57600080fd5b919050565b600080604083850312156100a457600080fd5b6100ad83610075565b91506100bb60208401610075565b90509250929050565b6114b8806100d36000396000f3fe608060405234801561001057600080fd5b50600436106101005760003560e01c80634ffab34b116100975780638be1e9c7116100665780638be1e9c71461024e5780638d3a09f0146102615780638da5cb5b14610274578063eb08ab281461029f57600080fd5b80634ffab34b14610215578063523aee69146102285780635d3dd232146101cd57806386d3ebc71461023b57600080fd5b80632f45af87116100d35780632f45af87146101825780634667c33c1461019757806348aad7ac146101aa5780634fe512d2146101cd57600080fd5b806303a1e8d3146101055780630fad05d91461012e57806312bfd0621461014f57806324037c841461016f575b600080fd5b610118610113366004610ef4565b6102a8565b6040516101259190610f31565b60405180910390f35b61014161013c366004610ef4565b61032b565b604051908152602001610125565b61016261015d366004610f75565b610353565b6040516101259190610fde565b61011861017d366004610ff8565b6103ff565b61018a61046b565b6040516101259190611021565b6101186101a5366004610f75565b610544565b6101bd6101b8366004610ff8565b6105a4565b6040519015158152602001610125565b6101fa6101db366004610f75565b6000908152600960205260409020805460018201546002909201549092565b60408051938452602084019290925290820152606001610125565b6101bd610223366004610f75565b6105fd565b6101bd610236366004610ff8565b610780565b6101bd610249366004610f75565b6107ce565b61014161025c366004611083565b610a96565b61014161026f366004610ef4565b610cb9565b600054610287906001600160a01b031681565b6040516001600160a01b039091168152602001610125565b61014160045481565b606060006006836040516102bc91906111a1565b90815260408051918290036020908101832054600081815260078352839020805480840286018401909452838552909450919083018282801561031e57602002820191906000526020600020905b81548152602001906001019080831161030a575b5050505050915050919050565b600060068260405161033d91906111a1565b9081526020016040518091039020549050919050565b6003818154811061036357600080fd5b90600052602060002001600091509050805461037e906111bd565b80601f01602080910402602001604051908101604052809291908181526020018280546103aa906111bd565b80156103f75780601f106103cc576101008083540402835291602001916103f7565b820191906000526020600020905b8154815290600101906020018083116103da57829003601f168201915b505050505081565b6001600160a01b03811660009081526008602090815260409182902080548351818402810184019094528084526060939283018282801561045f57602002820191906000526020600020905b81548152602001906001019080831161044b575b50505050509050919050565b60606003805480602002602001604051908101604052809291908181526020016000905b8282101561053b5783829060005260206000200180546104ae906111bd565b80601f01602080910402602001604051908101604052809291908181526020018280546104da906111bd565b80156105275780601f106104fc57610100808354040283529160200191610527565b820191906000526020600020905b81548152906001019060200180831161050a57829003601f168201915b50505050508152602001906001019061048f565b50505050905090565b60008181526007602090815260409182902080548351818402810184019094528084526060939283018282801561045f576020028201919060005260206000209081548152602001906001019080831161044b5750505050509050919050565b600080546001600160a01b031633146105d85760405162461bcd60e51b81526004016105cf906111f7565b60405180910390fd5b50600280546001600160a01b0383166001600160a01b03199091161790556001919050565b336000908152600860205260408120815b815481101561071c578382828154811061062a5761062a61123d565b90600052602060002001540361070a578154829061064a90600190611269565b8154811061065a5761065a61123d565b90600052602060002001548282815481106106775761067761123d565b90600052602060002001819055508180548061069557610695611282565b600190038181906000526020600020016000905590557f6aedc01cc2c8db47cd034cf59101411028446c5d8ba1ab81e97aa34ea8fa95388433426040516106f8939291909283526001600160a01b03919091166020830152604082015260600190565b60405180910390a15060019392505050565b8061071481611298565b91505061060e565b5060405162461bcd60e51b815260206004820152603260248201527f596f7520646f206e6f74206f776e2074686520636f75706f6e20796f752061726044820152716520747279696e6720746f2072656465656d60701b60648201526084016105cf565b600080546001600160a01b031633146107ab5760405162461bcd60e51b81526004016105cf906111f7565b50600180546001600160a01b0383166001600160a01b0319909116178155919050565b600081815260096020526040808220600181015460025492516312ef4f2f60e31b81523360048201529192909184916001600160a01b03169063977a797890602401602060405180830381865afa15801561082d573d6000803e3d6000fd5b505050506040513d601f19601f8201168201806040525081019061085191906112b1565b600081815260038501602052604090205490915060ff1680156108c45760405162461bcd60e51b815260206004820152602560248201527f596f75206172652070617274206f6620612062616e6e6564206f7267616e697a60448201526430ba34b7b760d91b60648201526084016105cf565b6001546040516370a0823160e01b815233600482015284916001600160a01b0316906370a0823190602401602060405180830381865afa15801561090c573d6000803e3d6000fd5b505050506040513d601f19601f8201168201806040525081019061093091906112b1565b101561093b57600080fd5b600084600201541161098f5760405162461bcd60e51b815260206004820152601960248201527f546865726520617265206e6f20636f75706f6e73206c6566740000000000000060448201526064016105cf565b6001546040516323b872dd60e01b8152336004820152306024820152604481018590526001600160a01b03909116906323b872dd906064016020604051808303816000875af11580156109e6573d6000803e3d6000fd5b505050506040513d601f19601f82011682018060405250810190610a0a91906112ca565b50600284018054906000610a1d836112ec565b90915550503360008181526008602090815260408083208054600181018255818552938390209093018a905580518a8152918201939093524281840152915190917f22b468a490056e4dd9ebc30d495107dfed587c5a24b13def2cbcd447cdbd398d919081900360600190a15060019695505050505050565b600080546001600160a01b03163314610ac15760405162461bcd60e51b81526004016105cf906111f7565b6000600687604051610ad391906111a1565b908152602001604051809103902054905080600003610b425760405162461bcd60e51b815260206004820152602560248201527f5468697320627573696e65737320686173206e6f74206265656e2072656769736044820152641d195c995960da1b60648201526084016105cf565b600554600081815260096020526040812091825560018201889055600282018790555b8451811015610c2b5760025485516000916001600160a01b03169063c0c59ab590889085908110610b9857610b9861123d565b60200260200101516040518263ffffffff1660e01b8152600401610bbc9190610fde565b602060405180830381865afa158015610bd9573d6000803e3d6000fd5b505050506040513d601f19601f82011682018060405250810190610bfd91906112b1565b60009081526003840160205260409020805460ff191660011790555080610c2381611298565b915050610b65565b50600082815260076020908152604082206005805482546001810184558386529385209093019290925581549092909190610c6583611298565b909155505081546040517fc527fa217916d8f83fc9403b085f0adffef8ca78766f35580e412f08721d292491610ca4918a908a9088908f904290611303565b60405180910390a15054979650505050505050565b600080546001600160a01b03163314610ce45760405162461bcd60e51b81526004016105cf906111f7565b600682604051610cf491906111a1565b908152602001604051809103902054600014610d625760405162461bcd60e51b815260206004820152602760248201527f5468697320627573696e6573732068617320616c7265616479206265656e20656044820152661b9c9bdb1b195960ca1b60648201526084016105cf565b600454600683604051610d7591906111a1565b90815260405190819003602001902055600380546001810182556000919091527fc2575a0e9e593c00f959f8c92f12db2869c3395a3b0502d05e2516446f71f85b01610dc1838261139d565b5060048054906000610dd283611298565b91905055507f37b524ad21d4187218ec4a0f051a2f1ad4c857c8c957c44bb9b2f01d0634365982600684604051610e0991906111a1565b90815260405190819003602001812054610e259291429061145d565b60405180910390a160068260405161033d91906111a1565b634e487b7160e01b600052604160045260246000fd5b604051601f8201601f1916810167ffffffffffffffff81118282101715610e7c57610e7c610e3d565b604052919050565b600082601f830112610e9557600080fd5b813567ffffffffffffffff811115610eaf57610eaf610e3d565b610ec2601f8201601f1916602001610e53565b818152846020838601011115610ed757600080fd5b816020850160208301376000918101602001919091529392505050565b600060208284031215610f0657600080fd5b813567ffffffffffffffff811115610f1d57600080fd5b610f2984828501610e84565b949350505050565b6020808252825182820181905260009190848201906040850190845b81811015610f6957835183529284019291840191600101610f4d565b50909695505050505050565b600060208284031215610f8757600080fd5b5035919050565b60005b83811015610fa9578181015183820152602001610f91565b50506000910152565b60008151808452610fca816020860160208601610f8e565b601f01601f19169290920160200192915050565b602081526000610ff16020830184610fb2565b9392505050565b60006020828403121561100a57600080fd5b81356001600160a01b0381168114610ff157600080fd5b6000602080830181845280855180835260408601915060408160051b870101925083870160005b8281101561107657603f19888603018452611064858351610fb2565b94509285019290850190600101611048565b5092979650505050505050565b600080600080600060a0868803121561109b57600080fd5b853567ffffffffffffffff808211156110b357600080fd5b6110bf89838a01610e84565b965060209150818801359550604088013594506060880135818111156110e457600080fd5b6110f08a828b01610e84565b94505060808801358181111561110557600080fd5b8801601f81018a1361111657600080fd5b80358281111561112857611128610e3d565b8060051b611137858201610e53565b918252828101850191858101908d84111561115157600080fd5b86850192505b8383101561118d5782358681111561116f5760008081fd5b61117d8f8983890101610e84565b8352509186019190860190611157565b809750505050505050509295509295909350565b600082516111b3818460208701610f8e565b9190910192915050565b600181811c908216806111d157607f821691505b6020821081036111f157634e487b7160e01b600052602260045260246000fd5b50919050565b60208082526026908201527f596f7520617265206e6f7420746865206f776e6572206f66207468697320636f6040820152651b9d1c9858dd60d21b606082015260800190565b634e487b7160e01b600052603260045260246000fd5b634e487b7160e01b600052601160045260246000fd5b8181038181111561127c5761127c611253565b92915050565b634e487b7160e01b600052603160045260246000fd5b6000600182016112aa576112aa611253565b5060010190565b6000602082840312156112c357600080fd5b5051919050565b6000602082840312156112dc57600080fd5b81518015158114610ff157600080fd5b6000816112fb576112fb611253565b506000190190565b86815285602082015260c06040820152600061132260c0830187610fb2565b856060840152828103608084015261133a8186610fb2565b9150508260a0830152979650505050505050565b601f82111561139857600081815260208120601f850160051c810160208610156113755750805b601f850160051c820191505b8181101561139457828155600101611381565b5050505b505050565b815167ffffffffffffffff8111156113b7576113b7610e3d565b6113cb816113c584546111bd565b8461134e565b602080601f83116001811461140057600084156113e85750858301515b600019600386901b1c1916600185901b178555611394565b600085815260208120601f198616915b8281101561142f57888601518255948401946001909101908401611410565b508582101561144d5787850151600019600388901b60f8161c191681555b5050505050600190811b01905550565b6060815260006114706060830186610fb2565b6020830194909452506040015291905056fea2646970667358221220fe392fa8d4be5644d7da4244900be0777e91bb0327d01444a1fc382286aa4d0c64736f6c63430008130033",
  "linkReferences": {},
  "deployedLinkReferences": {}
}