{
  "_format": "hh-sol-artifact-1",
  "contractName": "Classes",
  "sourceName": "contracts/Classes.sol",
  "abi": [
    {
      "inputs": [],
      "stateMutability": "nonpayable",
      "type": "constructor"
    },
    {
      "anonymous": false,
      "inputs": [
        {
          "indexed": false,
          "internalType": "string",
          "name": "className",
          "type": "string"
        },
        {
          "indexed": false,
          "internalType": "uint256",
          "name": "classId",
          "type": "uint256"
        },
        {
          "indexed": false,
          "internalType": "uint256",
          "name": "time",
          "type": "uint256"
        },
        {
          "indexed": false,
          "internalType": "address",
          "name": "teacher",
          "type": "address"
        }
      ],
      "name": "EnrolledClass",
      "type": "event"
    },
    {
      "anonymous": false,
      "inputs": [
        {
          "indexed": false,
          "internalType": "string",
          "name": "className",
          "type": "string"
        },
        {
          "indexed": false,
          "internalType": "uint256",
          "name": "classId",
          "type": "uint256"
        },
        {
          "indexed": false,
          "internalType": "uint256",
          "name": "sessionId",
          "type": "uint256"
        },
        {
          "indexed": false,
          "internalType": "uint256",
          "name": "time",
          "type": "uint256"
        },
        {
          "indexed": false,
          "internalType": "address",
          "name": "teacher",
          "type": "address"
        }
      ],
      "name": "EnrolledClassSession",
      "type": "event"
    },
    {
      "inputs": [
        {
          "internalType": "string",
          "name": "",
          "type": "string"
        }
      ],
      "name": "classToId",
      "outputs": [
        {
          "internalType": "uint256",
          "name": "",
          "type": "uint256"
        }
      ],
      "stateMutability": "view",
      "type": "function"
    },
    {
      "inputs": [
        {
          "internalType": "string",
          "name": "_className",
          "type": "string"
        },
        {
          "internalType": "uint256",
          "name": "_id",
          "type": "uint256"
        },
        {
          "internalType": "address",
          "name": "_teacher",
          "type": "address"
        }
      ],
      "name": "enrollClass",
      "outputs": [
        {
          "internalType": "bool",
          "name": "",
          "type": "bool"
        }
      ],
      "stateMutability": "nonpayable",
      "type": "function"
    },
    {
      "inputs": [
        {
          "internalType": "string",
          "name": "_className",
          "type": "string"
        },
        {
          "internalType": "uint256",
          "name": "_sessionId",
          "type": "uint256"
        },
        {
          "internalType": "address",
          "name": "_teacher",
          "type": "address"
        }
      ],
      "name": "enrollClassSession",
      "outputs": [
        {
          "internalType": "bool",
          "name": "",
          "type": "bool"
        }
      ],
      "stateMutability": "nonpayable",
      "type": "function"
    },
    {
      "inputs": [],
      "name": "owner",
      "outputs": [
        {
          "internalType": "address",
          "name": "",
          "type": "address"
        }
      ],
      "stateMutability": "view",
      "type": "function"
    },
    {
      "inputs": [
        {
          "internalType": "uint256",
          "name": "",
          "type": "uint256"
        }
      ],
      "name": "takenClassIds",
      "outputs": [
        {
          "internalType": "bool",
          "name": "",
          "type": "bool"
        }
      ],
      "stateMutability": "view",
      "type": "function"
    },
    {
      "inputs": [
        {
          "internalType": "uint256",
          "name": "",
          "type": "uint256"
        }
      ],
      "name": "takenClassSession",
      "outputs": [
        {
          "internalType": "bool",
          "name": "",
          "type": "bool"
        }
      ],
      "stateMutability": "view",
      "type": "function"
    },
    {
      "inputs": [
        {
          "internalType": "uint256",
          "name": "",
          "type": "uint256"
        }
      ],
      "name": "validClassSession",
      "outputs": [
        {
          "internalType": "bool",
          "name": "",
          "type": "bool"
        }
      ],
      "stateMutability": "view",
      "type": "function"
    },
    {
      "inputs": [
        {
          "internalType": "uint256",
          "name": "_sessionId",
          "type": "uint256"
        }
      ],
      "name": "validSessionChecker",
      "outputs": [
        {
          "internalType": "bool",
          "name": "",
          "type": "bool"
        }
      ],
      "stateMutability": "view",
      "type": "function"
    }
  ],
  "bytecode": "0x608060405234801561001057600080fd5b50600080546001600160a01b03191633179055610785806100326000396000f3fe608060405234801561001057600080fd5b50600436106100885760003560e01c80638da5cb5b1161005b5780638da5cb5b14610134578063ab27015d1461015f578063bc9379ab14610182578063f3baa27e1461019557600080fd5b80632c5652861461008d5780633b1341cc146100cb57806371a7ce9a146100fe5780637af0bc7e14610111575b600080fd5b6100b861009b366004610568565b805160208183018101805160018252928201919093012091525481565b6040519081526020015b60405180910390f35b6100ee6100d93660046105a5565b60026020526000908152604090205460ff1681565b60405190151581526020016100c2565b6100ee61010c3660046105be565b6101b8565b6100ee61011f3660046105a5565b60009081526003602052604090205460ff1690565b600054610147906001600160a01b031681565b6040516001600160a01b0390911681526020016100c2565b6100ee61016d3660046105a5565b60046020526000908152604090205460ff1681565b6100ee6101903660046105be565b610349565b6100ee6101a33660046105a5565b60036020526000908152604090205460ff1681565b600080546001600160a01b031633146101ec5760405162461bcd60e51b81526004016101e390610625565b60405180910390fd5b60008381526002602052604090205460ff16156102575760405162461bcd60e51b8152602060048201526024808201527f5468697320636c6173732069642068617320616c7265616479206265656e207460448201526330b5b2b760e11b60648201526084016101e3565b600184604051610267919061068f565b9081526020016040518091039020546000146102c55760405162461bcd60e51b815260206004820152601c60248201527f7468697320636c61737320616c72656164792068617320616e2069640000000060448201526064016101e3565b826001856040516102d6919061068f565b9081526040805191829003602090810183209390935560008681526002909352909120805460ff191660011790557fc4b1141bf88d6fe709451753dc68f68876e152172ba0fe7d449e63bd9930daf8906103379086908690429087906106d7565b60405180910390a15060019392505050565b600080546001600160a01b031633146103745760405162461bcd60e51b81526004016101e390610625565b600184604051610384919061068f565b9081526020016040518091039020546000036103e25760405162461bcd60e51b815260206004820181905260248201527f7468697320636c61737320686173206e6f74206265656e20656e726f6c6c656460448201526064016101e3565b60008381526004602052604090205460ff16156104565760405162461bcd60e51b815260206004820152602c60248201527f5468697320636c6173732073657373696f6e2069642068617320616c7265616460448201526b3c903132b2b7103a30b5b2b760a11b60648201526084016101e3565b60008381526003602052604090819020805460ff1916600190811790915590517fd84b7eb0de81ec95eef1ae3249a78751b718906b14125ad6564108894b319ed49186916104a590839061068f565b90815260405190819003602001812054610337929187904290889061070f565b634e487b7160e01b600052604160045260246000fd5b600082601f8301126104ec57600080fd5b813567ffffffffffffffff80821115610507576105076104c5565b604051601f8301601f19908116603f0116810190828211818310171561052f5761052f6104c5565b8160405283815286602085880101111561054857600080fd5b836020870160208301376000602085830101528094505050505092915050565b60006020828403121561057a57600080fd5b813567ffffffffffffffff81111561059157600080fd5b61059d848285016104db565b949350505050565b6000602082840312156105b757600080fd5b5035919050565b6000806000606084860312156105d357600080fd5b833567ffffffffffffffff8111156105ea57600080fd5b6105f6868287016104db565b9350506020840135915060408401356001600160a01b038116811461061a57600080fd5b809150509250925092565b60208082526026908201527f796f7520617265206e6f7420746865206f776e6572206f66207468697320636f6040820152651b9d1c9858dd60d21b606082015260800190565b60005b8381101561068657818101518382015260200161066e565b50506000910152565b600082516106a181846020870161066b565b9190910192915050565b600081518084526106c381602086016020860161066b565b601f01601f19169290920160200192915050565b6080815260006106ea60808301876106ab565b60208301959095525060408101929092526001600160a01b0316606090910152919050565b60a08152600061072260a08301886106ab565b602083019690965250604081019390935260608301919091526001600160a01b031660809091015291905056fea26469706673582212206bc6bb41cca5a0e8c46ed32e502b1860c0215f9f9a02116f21eea298bd455d2664736f6c63430008130033",
  "linkReferences": {},
  "deployedLinkReferences": {}
}